{
    "_format": "hh-sol-artifact-1",
    "contractName": "ConfluxSide",
    "sourceName": "contracts/ConfluxSide.sol",
    "abi": [
        {
            "anonymous": false,
            "inputs": [
                {
                    "indexed": true,
                    "internalType": "address",
                    "name": "token",
                    "type": "address"
                },
                {
                    "indexed": true,
                    "internalType": "address",
                    "name": "cfxAccount",
                    "type": "address"
                },
                {
                    "indexed": true,
                    "internalType": "address",
                    "name": "evmAccount",
                    "type": "address"
                },
                {
                    "indexed": false,
                    "internalType": "uint256",
                    "name": "amount",
                    "type": "uint256"
                }
            ],
            "name": "CrossFromEvm",
            "type": "event"
        },
        {
            "anonymous": false,
            "inputs": [
                {
                    "indexed": true,
                    "internalType": "address",
                    "name": "token",
                    "type": "address"
                },
                {
                    "indexed": true,
                    "internalType": "address",
                    "name": "cfxAccount",
                    "type": "address"
                },
                {
                    "indexed": true,
                    "internalType": "address",
                    "name": "evmAccount",
                    "type": "address"
                },
                {
                    "indexed": false,
                    "internalType": "uint256",
                    "name": "amount",
                    "type": "uint256"
                }
            ],
            "name": "CrossToEvm",
            "type": "event"
        },
        {
            "anonymous": false,
            "inputs": [
                {
                    "indexed": true,
                    "internalType": "address",
                    "name": "token",
                    "type": "address"
                },
                {
                    "indexed": true,
                    "internalType": "address",
                    "name": "cfxAccount",
                    "type": "address"
                },
                {
                    "indexed": true,
                    "internalType": "address",
                    "name": "evmAccount",
                    "type": "address"
                },
                {
                    "indexed": false,
                    "internalType": "uint256",
                    "name": "amount",
                    "type": "uint256"
                }
            ],
            "name": "WithdrawFromEvm",
            "type": "event"
        },
        {
            "anonymous": false,
            "inputs": [
                {
                    "indexed": true,
                    "internalType": "address",
                    "name": "token",
                    "type": "address"
                },
                {
                    "indexed": true,
                    "internalType": "address",
                    "name": "cfxAccount",
                    "type": "address"
                },
                {
                    "indexed": true,
                    "internalType": "address",
                    "name": "evmAccount",
                    "type": "address"
                },
                {
                    "indexed": false,
                    "internalType": "uint256",
                    "name": "amount",
                    "type": "uint256"
                }
            ],
            "name": "WithdrawToEvm",
            "type": "event"
        },
        {
            "inputs": [
                {
                    "internalType": "address",
                    "name": "_evmToken",
                    "type": "address"
                },
                {
                    "internalType": "address",
                    "name": "_evmAccount",
                    "type": "address"
                },
                {
                    "internalType": "uint256",
                    "name": "_amount",
                    "type": "uint256"
                }
            ],
            "name": "crossFromEvm",
            "outputs": [],
            "stateMutability": "nonpayable",
            "type": "function"
        },
        {
            "inputs": [],
            "name": "crossSpaceCall",
            "outputs": [
                {
                    "internalType": "contract ICrossSpaceCall",
                    "name": "",
                    "type": "address"
                }
            ],
            "stateMutability": "view",
            "type": "function"
        },
        {
            "inputs": [
                {
                    "internalType": "contract IERC20",
                    "name": "_token",
                    "type": "address"
                },
                {
                    "internalType": "address",
                    "name": "_evmAccount",
                    "type": "address"
                },
                {
                    "internalType": "uint256",
                    "name": "_amount",
                    "type": "uint256"
                }
            ],
            "name": "crossToEvm",
            "outputs": [],
            "stateMutability": "nonpayable",
            "type": "function"
        },
        {
            "inputs": [],
            "name": "evmSide",
            "outputs": [
                {
                    "internalType": "address",
                    "name": "",
                    "type": "address"
                }
            ],
            "stateMutability": "view",
            "type": "function"
        },
        {
            "inputs": [
                {
                    "internalType": "uint256",
                    "name": "offset",
                    "type": "uint256"
                }
            ],
            "name": "getTokens",
            "outputs": [
                {
                    "internalType": "address[]",
                    "name": "result",
                    "type": "address[]"
                },
                {
                    "internalType": "uint256",
                    "name": "cnt",
                    "type": "uint256"
                }
            ],
            "stateMutability": "view",
            "type": "function"
        },
        {
            "inputs": [
                {
                    "internalType": "uint256",
                    "name": "",
                    "type": "uint256"
                }
            ],
            "name": "mappedTokenList",
            "outputs": [
                {
                    "internalType": "address",
                    "name": "",
                    "type": "address"
                }
            ],
            "stateMutability": "view",
            "type": "function"
        },
        {
            "inputs": [
                {
                    "internalType": "address",
                    "name": "",
                    "type": "address"
                }
            ],
            "name": "mappedTokens",
            "outputs": [
                {
                    "internalType": "address",
                    "name": "",
                    "type": "address"
                }
            ],
            "stateMutability": "view",
            "type": "function"
        },
        {
            "inputs": [
                {
                    "internalType": "contract IERC20",
                    "name": "_token",
                    "type": "address"
                }
            ],
            "name": "registerMetadata",
            "outputs": [],
            "stateMutability": "nonpayable",
            "type": "function"
        },
        {
            "inputs": [
                {
                    "internalType": "address",
                    "name": "_evmSide",
                    "type": "address"
                }
            ],
            "name": "setEvmSide",
            "outputs": [],
            "stateMutability": "nonpayable",
            "type": "function"
        },
        {
            "inputs": [
                {
                    "internalType": "address",
                    "name": "",
                    "type": "address"
                }
            ],
            "name": "sourceTokens",
            "outputs": [
                {
                    "internalType": "address",
                    "name": "",
                    "type": "address"
                }
            ],
            "stateMutability": "view",
            "type": "function"
        },
        {
            "inputs": [
                {
                    "internalType": "contract IERC20",
                    "name": "_token",
                    "type": "address"
                },
                {
                    "internalType": "address",
                    "name": "_evmAccount",
                    "type": "address"
                },
                {
                    "internalType": "uint256",
                    "name": "_amount",
                    "type": "uint256"
                }
            ],
            "name": "withdrawFromEvm",
            "outputs": [],
            "stateMutability": "nonpayable",
            "type": "function"
        },
        {
            "inputs": [
                {
                    "internalType": "address",
                    "name": "_evmToken",
                    "type": "address"
                },
                {
                    "internalType": "address",
                    "name": "_evmAccount",
                    "type": "address"
                },
                {
                    "internalType": "uint256",
                    "name": "_amount",
                    "type": "uint256"
                }
            ],
            "name": "withdrawToEvm",
            "outputs": [],
            "stateMutability": "nonpayable",
            "type": "function"
        }
    ],
    "bytecode": "0x60806040526003805460ff1916905534801561001a57600080fd5b50612b3d8061002a6000396000f3fe60806040523480156200001157600080fd5b5060043610620000c45760003560e01c806395c7695b116200007b57806395c7695b1462000184578063b7096e34146200019b578063c056cda814620001b2578063ccb31e2514620001cb578063d3c9cc2614620001e2578063e6ede14d146200020957620000c4565b806320325aae14620000c95780632ab710d414620000fa57806338e3eadf14620001135780634f7acc4a146200012a57806357c0478c1462000141578063849cd5cf1462000158575b600080fd5b600454620000dd906001600160a01b031681565b6040516001600160a01b0390911681526020015b60405180910390f35b620001116200010b36600462001617565b62000235565b005b620000dd62000124366004620017ae565b620003a7565b620001116200013b36600462001636565b620003d2565b620001116200015236600462001636565b62000662565b620000dd6200016936600462001617565b6001602052600090815260409020546001600160a01b031681565b620001116200019536600462001617565b620009a7565b62000111620001ac366004620016e8565b62000bec565b600354620000dd9061010090046001600160a01b031681565b62000111620001dc366004620016e8565b62000dd8565b620001f9620001f3366004620017ae565b62000fbf565b604051620000f1929190620018d7565b620000dd6200021a36600462001617565b6000602081905290815260409020546001600160a01b031681565b6004546001600160a01b0316156200029e5760405162461bcd60e51b815260206004820152602160248201527f436f6e666c7578536964653a2065766d20736964652073657420616c726561646044820152607960f81b60648201526084015b60405180910390fd5b600480546001600160a01b0319166001600160a01b038381169190911780835560038054610100600160a81b031916740888000000000000000000000000000000000006001790819055604080518581526024810182526020810180516337e7d26760e11b6001600160e01b03909116179052905163bea05ee360e01b81526101009092049093169363bea05ee393620003499360601b6001600160601b031916929091016200192a565b600060405180830381600087803b1580156200036457600080fd5b505af115801562000379573d6000803e3d6000fd5b505050506040513d6000823e601f3d908101601f19168201604052620003a391908101906200169d565b5050565b60028181548110620003b857600080fd5b6000918252602090912001546001600160a01b0316905081565b60035460ff1615620003f85760405162461bcd60e51b81526004016200029590620019b4565b6003805460ff191660011790556001600160a01b03838116600090815260208190526040902054166200046e5760405162461bcd60e51b815260206004820152601d60248201527f436f6e666c7578536964653a206e6f74206d617070656420746f6b656e000000604482015260640162000295565b60008111620004915760405162461bcd60e51b81526004016200029590620019e0565b6001600160a01b0383811660009081526020819052604090819020549051632770a7eb60e21b815233600482015260248101849052911690639dc29fac90604401600060405180830381600087803b158015620004ed57600080fd5b505af115801562000502573d6000803e3d6000fd5b50506003546004546040516001600160a01b038881166024830152878116604483015260648201879052610100909304909216935063bea05ee3925060601b6001600160601b03191690639218b81f60e01b9060840160408051601f198184030181529181526020820180516001600160e01b03166001600160e01b03199485161790525160e085901b9092168252620005a092916004016200192a565b600060405180830381600087803b158015620005bb57600080fd5b505af1158015620005d0573d6000803e3d6000fd5b505050506040513d6000823e601f3d908101601f19168201604052620005fa91908101906200169d565b50816001600160a01b0316336001600160a01b0316846001600160a01b03167fff676b503ffa89902ea306cf352f9488648fce55bbcfa0dc236194c92ec1a227846040516200064b91815260200190565b60405180910390a450506003805460ff1916905550565b60035460ff1615620006885760405162461bcd60e51b81526004016200029590620019b4565b6003805460ff1916600117905580620006b55760405162461bcd60e51b81526004016200029590620019e0565b6001600160a01b0383811660009081526020819052604090205416620007f2576003546004546040516001600160a01b038681166024830152600093849384936101009092049092169163bea05ee39160609190911b6001600160601b031916906313ff7e9f60e01b9060440160408051601f198184030181529181526020820180516001600160e01b03166001600160e01b03199485161790525160e085901b90921682526200076a92916004016200192a565b600060405180830381600087803b1580156200078557600080fd5b505af11580156200079a573d6000803e3d6000fd5b505050506040513d6000823e601f3d908101601f19168201604052620007c491908101906200169d565b806020019051810190620007d9919062001734565b925092509250620007ed86848484620010fb565b505050505b60035460048054604080516001600160a01b038881166024830152878116604483015233606483015260848083018890528351808403909101815260a4909201835260208201805163622aa49560e11b6001600160e01b03909116179052915163bea05ee360e01b81526101009095049091169363bea05ee393620008879360601b6001600160601b0319169291016200192a565b600060405180830381600087803b158015620008a257600080fd5b505af1158015620008b7573d6000803e3d6000fd5b505050506040513d6000823e601f3d908101601f19168201604052620008e191908101906200169d565b506001600160a01b03838116600090815260208190526040908190205490516340c10f1960e01b8152336004820152602481018490529116906340c10f1990604401600060405180830381600087803b1580156200093e57600080fd5b505af115801562000953573d6000803e3d6000fd5b50505050816001600160a01b0316336001600160a01b0316846001600160a01b03167ffe0d28219ef63ee77ddb4063e43622769b156f6ab6fee3975c47b7e6cee0d24e846040516200064b91815260200190565b6001600160a01b038181166000908152600160205260409020541615620009e25760405162461bcd60e51b8152600401620002959062001969565b600360019054906101000a90046001600160a01b03166001600160a01b031663bea05ee3600460009054906101000a90046001600160a01b031660601b638fe3fb8a60e01b84856001600160a01b03166306fdde036040518163ffffffff1660e01b815260040160006040518083038186803b15801562000a6257600080fd5b505afa15801562000a77573d6000803e3d6000fd5b505050506040513d6000823e601f3d908101601f1916820160405262000aa19190810190620016fd565b866001600160a01b03166395d89b416040518163ffffffff1660e01b815260040160006040518083038186803b15801562000adb57600080fd5b505afa15801562000af0573d6000803e3d6000fd5b505050506040513d6000823e601f3d908101601f1916820160405262000b1a9190810190620016fd565b876001600160a01b031663313ce5676040518163ffffffff1660e01b815260040160206040518083038186803b15801562000b5457600080fd5b505afa15801562000b69573d6000803e3d6000fd5b505050506040513d601f19601f8201168201806040525081019062000b8f9190620017c7565b60405160240162000ba4949392919062001888565b60408051601f198184030181529181526020820180516001600160e01b03166001600160e01b03199485161790525160e085901b90921682526200034992916004016200192a565b60035460ff161562000c125760405162461bcd60e51b81526004016200029590620019b4565b6003805460ff191660019081179091556001600160a01b038481166000908152602092909252604090912054161562000c5f5760405162461bcd60e51b8152600401620002959062001969565b6000811162000c825760405162461bcd60e51b81526004016200029590620019e0565b60035460048054604080516001600160a01b038881166024830152878116604483015233606483015260848083018890528351808403909101815260a49092018352602082018051633b94287b60e11b6001600160e01b03909116179052915163bea05ee360e01b81526101009095049091169363bea05ee39362000d179360601b6001600160601b0319169291016200192a565b600060405180830381600087803b15801562000d3257600080fd5b505af115801562000d47573d6000803e3d6000fd5b505050506040513d6000823e601f3d908101601f1916820160405262000d7191908101906200169d565b5062000d886001600160a01b038416338362001237565b816001600160a01b0316336001600160a01b0316846001600160a01b03167f41fe7916991bcfd814c1ac7159bbd7f85f8dbc4fd8f59a4ac2ac24797dc811fd846040516200064b91815260200190565b60035460ff161562000dfe5760405162461bcd60e51b81526004016200029590620019b4565b6003805460ff191660019081179091556001600160a01b038481166000908152602092909252604090912054161562000e4b5760405162461bcd60e51b8152600401620002959062001969565b6000811162000e6e5760405162461bcd60e51b81526004016200029590620019e0565b62000e856001600160a01b038416333084620012a1565b60035460048054604080516001600160a01b038881166024830152878116604483015260648083018890528351808403909101815260849092018352602082018051636361ddf360e11b6001600160e01b03909116179052915163bea05ee360e01b81526101009095049091169363bea05ee39362000f149360601b6001600160601b0319169291016200192a565b600060405180830381600087803b15801562000f2f57600080fd5b505af115801562000f44573d6000803e3d6000fd5b505050506040513d6000823e601f3d908101601f1916820160405262000f6e91908101906200169d565b50816001600160a01b0316336001600160a01b0316846001600160a01b03167f469bcb9134c524610c46c07ed7c3d823f14648f34d017b7c38374a972025ec88846040516200064b91815260200190565b60025460609060008162000fd585606462001a17565b1062000fe2578162000fef565b62000fef84606462001a17565b905083811115620010f55762001006848262001a32565b67ffffffffffffffff8111156200102d57634e487b7160e01b600052604160045260246000fd5b60405190808252806020026020018201604052801562001057578160200160208202803683370190505b509250835b81811015620010f357600281815481106200108757634e487b7160e01b600052603260045260246000fd5b6000918252602090912001546001600160a01b031684620010a9878462001a32565b81518110620010c857634e487b7160e01b600052603260045260246000fd5b6001600160a01b0390921660209283029190910190910152620010eb8162001a7b565b90506200105c565b505b50915091565b6001600160a01b0384811660009081526020819052604081205490911662001212576040516001600160601b0319606087901b166020820152603401604051602081830303815290604052805190602001203086868686604051620011609062001558565b6200117095949392919062001830565b8190604051809103906000f590508015801562001191573d6000803e3d6000fd5b506001600160a01b0380871660008181526020818152604080832080549587166001600160a01b031996871681179091558352600191829052822080548516841790556002805491820181559091527f405787fa12a823e0f2b7631cc41b3ba8828b3321ca811111fa75cd3aa3bb5ace01805490921617905590506200122f565b506001600160a01b03808516600090815260208190526040902054165b949350505050565b6040516001600160a01b0383166024820152604481018290526200129c90849063a9059cbb60e01b906064015b60408051601f198184030181529190526020810180516001600160e01b03166001600160e01b031990931692909217909152620012e1565b505050565b6040516001600160a01b0380851660248301528316604482015260648101829052620012db9085906323b872dd60e01b9060840162001264565b50505050565b600062001338826040518060400160405280602081526020017f5361666545524332303a206c6f772d6c6576656c2063616c6c206661696c6564815250856001600160a01b0316620013ba9092919063ffffffff16565b8051909150156200129c57808060200190518101906200135991906200167b565b6200129c5760405162461bcd60e51b815260206004820152602a60248201527f5361666545524332303a204552433230206f7065726174696f6e20646964206e6044820152691bdd081cdd58d8d9595960b21b606482015260840162000295565b6060620013cb8484600085620013d5565b90505b9392505050565b606082471015620014385760405162461bcd60e51b815260206004820152602660248201527f416464726573733a20696e73756666696369656e742062616c616e636520666f6044820152651c8818d85b1b60d21b606482015260840162000295565b620014438562001510565b620014915760405162461bcd60e51b815260206004820152601d60248201527f416464726573733a2063616c6c20746f206e6f6e2d636f6e7472616374000000604482015260640162000295565b600080866001600160a01b03168587604051620014af919062001812565b60006040518083038185875af1925050503d8060008114620014ee576040519150601f19603f3d011682016040523d82523d6000602084013e620014f3565b606091505b5091509150620015058282866200151a565b979650505050505050565b803b15155b919050565b606083156200152b575081620013ce565b8251156200153c5782518084602001fd5b8160405162461bcd60e51b815260040162000295919062001954565b6110298062001adf83390190565b600067ffffffffffffffff8084111562001584576200158462001aaf565b604051601f8501601f19908116603f01168101908282118183101715620015af57620015af62001aaf565b81604052809350858152868686011115620015c957600080fd5b620015d986602083018762001a4c565b5050509392505050565b600082601f830112620015f4578081fd5b620013ce8383516020850162001566565b805160ff811681146200151557600080fd5b60006020828403121562001629578081fd5b8135620013ce8162001ac5565b6000806000606084860312156200164b578182fd5b8335620016588162001ac5565b925060208401356200166a8162001ac5565b929592945050506040919091013590565b6000602082840312156200168d578081fd5b81518015158114620013ce578182fd5b600060208284031215620016af578081fd5b815167ffffffffffffffff811115620016c6578182fd5b8201601f81018413620016d7578182fd5b6200122f8482516020840162001566565b6000806000606084860312156200164b578283fd5b6000602082840312156200170f578081fd5b815167ffffffffffffffff81111562001726578182fd5b6200122f84828501620015e3565b60008060006060848603121562001749578283fd5b835167ffffffffffffffff8082111562001761578485fd5b6200176f87838801620015e3565b9450602086015191508082111562001785578384fd5b506200179486828701620015e3565b925050620017a56040850162001605565b90509250925092565b600060208284031215620017c0578081fd5b5035919050565b600060208284031215620017d9578081fd5b620013ce8262001605565b60008151808452620017fe81602086016020860162001a4c565b601f01601f19169290920160200192915050565b600082516200182681846020870162001a4c565b9190910192915050565b6001600160a01b0386811682528516602082015260a0604082018190526000906200185e90830186620017e4565b8281036060840152620018728186620017e4565b91505060ff831660808301529695505050505050565b6001600160a01b0385168152608060208201819052600090620018ae90830186620017e4565b8281036040840152620018c28186620017e4565b91505060ff8316606083015295945050505050565b604080825283519082018190526000906020906060840190828701845b828110156200191b5781516001600160a01b031684529284019290840190600101620018f4565b50505092019290925292915050565b60006bffffffffffffffffffffffff198416825260406020830152620013cb6040830184620017e4565b600060208252620013ce6020830184620017e4565b6020808252602b908201527f436f6e666c7578536964653a20746f6b656e206973206d61707065642066726f60408201526a6d2065766d20737061636560a81b606082015260800190565b602080825260129082015271149151539514905390d657d253131151d05360721b604082015260600190565b6020808252601b908201527f436f6e666c7578536964653a20696e76616c696420616d6f756e740000000000604082015260600190565b6000821982111562001a2d5762001a2d62001a99565b500190565b60008282101562001a475762001a4762001a99565b500390565b60005b8381101562001a6957818101518382015260200162001a4f565b83811115620012db5750506000910152565b600060001982141562001a925762001a9262001a99565b5060010190565b634e487b7160e01b600052601160045260246000fd5b634e487b7160e01b600052604160045260246000fd5b6001600160a01b038116811462001adb57600080fd5b5056fe60806040523480156200001157600080fd5b50604051620010293803806200102983398101604081905262000034916200022d565b82604051602001620000479190620002d5565b6040516020818303038152906040528282826003908051906020019062000070929190620000db565b50815162000086906004906020850190620000db565b506005805460ff191660ff9290921691909117610100600160a81b0319166101006001600160a01b03998a16021790555050600680546001600160a01b0319169490951693909317909355506200038c915050565b828054620000e99062000339565b90600052602060002090601f0160209004810192826200010d576000855562000158565b82601f106200012857805160ff191683800117855562000158565b8280016001018555821562000158579182015b82811115620001585782518255916020019190600101906200013b565b50620001669291506200016a565b5090565b5b808211156200016657600081556001016200016b565b80516001600160a01b03811681146200019957600080fd5b919050565b600082601f830112620001af578081fd5b81516001600160401b0380821115620001cc57620001cc62000376565b604051601f8301601f19908116603f01168101908282118183101715620001f757620001f762000376565b8160405283815286602085880101111562000210578485fd5b6200022384602083016020890162000306565b9695505050505050565b600080600080600060a0868803121562000245578081fd5b620002508662000181565b9450620002606020870162000181565b60408701519094506001600160401b03808211156200027d578283fd5b6200028b89838a016200019e565b94506060880151915080821115620002a1578283fd5b50620002b0888289016200019e565b925050608086015160ff81168114620002c7578182fd5b809150509295509295909350565b600066026b0b83832b2160cd1b82528251620002f981600785016020870162000306565b9190910160070192915050565b60005b838110156200032357818101518382015260200162000309565b8381111562000333576000848401525b50505050565b6002810460018216806200034e57607f821691505b602082108114156200037057634e487b7160e01b600052602260045260246000fd5b50919050565b634e487b7160e01b600052604160045260246000fd5b610c8d806200039c6000396000f3fe608060405234801561001057600080fd5b50600436106100f55760003560e01c80635f8aaa6911610097578063a457c2d711610066578063a457c2d7146101f6578063a9059cbb14610209578063dd62ed3e1461021c578063f851a44014610255576100f5565b80635f8aaa691461019d57806370a08231146101c857806395d89b41146101db5780639dc29fac146101e3576100f5565b806323b872dd116100d357806323b872dd1461014d578063313ce56714610160578063395093511461017557806340c10f1914610188576100f5565b806306fdde03146100fa578063095ea7b31461011857806318160ddd1461013b575b600080fd5b61010261026d565b60405161010f9190610b84565b60405180910390f35b61012b610126366004610b5b565b6102ff565b604051901515815260200161010f565b6002545b60405190815260200161010f565b61012b61015b366004610b20565b610315565b60055460405160ff909116815260200161010f565b61012b610183366004610b5b565b6103c4565b61019b610196366004610b5b565b610400565b005b6006546101b0906001600160a01b031681565b6040516001600160a01b03909116815260200161010f565b61013f6101d6366004610acd565b610466565b610102610485565b61019b6101f1366004610b5b565b610494565b61012b610204366004610b5b565b6104f6565b61012b610217366004610b5b565b61058f565b61013f61022a366004610aee565b6001600160a01b03918216600090815260016020908152604080832093909416825291909152205490565b6005546101b09061010090046001600160a01b031681565b60606003805461027c90610c06565b80601f01602080910402602001604051908101604052809291908181526020018280546102a890610c06565b80156102f55780601f106102ca576101008083540402835291602001916102f5565b820191906000526020600020905b8154815290600101906020018083116102d857829003601f168201915b5050505050905090565b600061030c33848461059c565b50600192915050565b60006103228484846106c1565b6001600160a01b0384166000908152600160209081526040808320338452909152902054828110156103ac5760405162461bcd60e51b815260206004820152602860248201527f45524332303a207472616e7366657220616d6f756e74206578636565647320616044820152676c6c6f77616e636560c01b60648201526084015b60405180910390fd5b6103b9853385840361059c565b506001949350505050565b3360008181526001602090815260408083206001600160a01b0387168452909152812054909161030c9185906103fb908690610bd7565b61059c565b60055461010090046001600160a01b031633146104585760405162461bcd60e51b815260206004820152601660248201527526b0b83832b22a37b5b2b71d103737ba1030b236b4b760511b60448201526064016103a3565b6104628282610890565b5050565b6001600160a01b0381166000908152602081905260409020545b919050565b60606004805461027c90610c06565b60055461010090046001600160a01b031633146104ec5760405162461bcd60e51b815260206004820152601660248201527526b0b83832b22a37b5b2b71d103737ba1030b236b4b760511b60448201526064016103a3565b6104628282610970565b3360009081526001602090815260408083206001600160a01b0386168452909152812054828110156105785760405162461bcd60e51b815260206004820152602560248201527f45524332303a2064656372656173656420616c6c6f77616e63652062656c6f77604482015264207a65726f60d81b60648201526084016103a3565b610585338585840361059c565b5060019392505050565b600061030c3384846106c1565b6001600160a01b0383166105fe5760405162461bcd60e51b8152602060048201526024808201527f45524332303a20617070726f76652066726f6d20746865207a65726f206164646044820152637265737360e01b60648201526084016103a3565b6001600160a01b03821661065f5760405162461bcd60e51b815260206004820152602260248201527f45524332303a20617070726f766520746f20746865207a65726f206164647265604482015261737360f01b60648201526084016103a3565b6001600160a01b0383811660008181526001602090815260408083209487168084529482529182902085905590518481527f8c5be1e5ebec7d5bd14f71427d1e84f3dd0314c0f7b2291e5b200ac8c7c3b92591015b60405180910390a3505050565b6001600160a01b0383166107255760405162461bcd60e51b815260206004820152602560248201527f45524332303a207472616e736665722066726f6d20746865207a65726f206164604482015264647265737360d81b60648201526084016103a3565b6001600160a01b0382166107875760405162461bcd60e51b815260206004820152602360248201527f45524332303a207472616e7366657220746f20746865207a65726f206164647260448201526265737360e81b60648201526084016103a3565b6001600160a01b038316600090815260208190526040902054818110156107ff5760405162461bcd60e51b815260206004820152602660248201527f45524332303a207472616e7366657220616d6f756e7420657863656564732062604482015265616c616e636560d01b60648201526084016103a3565b6001600160a01b03808516600090815260208190526040808220858503905591851681529081208054849290610836908490610bd7565b92505081905550826001600160a01b0316846001600160a01b03167fddf252ad1be2c89b69c2b068fc378daa952ba7f163c4a11628f55a4df523b3ef8460405161088291815260200190565b60405180910390a350505050565b6001600160a01b0382166108e65760405162461bcd60e51b815260206004820152601f60248201527f45524332303a206d696e7420746f20746865207a65726f20616464726573730060448201526064016103a3565b80600260008282546108f89190610bd7565b90915550506001600160a01b03821660009081526020819052604081208054839290610925908490610bd7565b90915550506040518181526001600160a01b038316906000907fddf252ad1be2c89b69c2b068fc378daa952ba7f163c4a11628f55a4df523b3ef9060200160405180910390a3610462565b6001600160a01b0382166109d05760405162461bcd60e51b815260206004820152602160248201527f45524332303a206275726e2066726f6d20746865207a65726f206164647265736044820152607360f81b60648201526084016103a3565b6001600160a01b03821660009081526020819052604090205481811015610a445760405162461bcd60e51b815260206004820152602260248201527f45524332303a206275726e20616d6f756e7420657863656564732062616c616e604482015261636560f01b60648201526084016103a3565b6001600160a01b0383166000908152602081905260408120838303905560028054849290610a73908490610bef565b90915550506040518281526000906001600160a01b038516907fddf252ad1be2c89b69c2b068fc378daa952ba7f163c4a11628f55a4df523b3ef906020016106b4565b80356001600160a01b038116811461048057600080fd5b600060208284031215610ade578081fd5b610ae782610ab6565b9392505050565b60008060408385031215610b00578081fd5b610b0983610ab6565b9150610b1760208401610ab6565b90509250929050565b600080600060608486031215610b34578081fd5b610b3d84610ab6565b9250610b4b60208501610ab6565b9150604084013590509250925092565b60008060408385031215610b6d578182fd5b610b7683610ab6565b946020939093013593505050565b6000602080835283518082850152825b81811015610bb057858101830151858201604001528201610b94565b81811115610bc15783604083870101525b50601f01601f1916929092016040019392505050565b60008219821115610bea57610bea610c41565b500190565b600082821015610c0157610c01610c41565b500390565b600281046001821680610c1a57607f821691505b60208210811415610c3b57634e487b7160e01b600052602260045260246000fd5b50919050565b634e487b7160e01b600052601160045260246000fdfea26469706673582212209d8b9bfa1fff86c333ff0d0055755af08cda5986b26dae7afd8fff6c5177e7ef64736f6c63430008020033a2646970667358221220cd2dfd7c5af66d121b954ad2d2e984231c18a3b9df43b3bb6ed0908cc3f4d26364736f6c63430008020033",
    "linkReferences": {},
    "deployedLinkReferences": {}
}