{
    "_format": "hh-sol-artifact-1",
    "contractName": "EvmSide",
    "sourceName": "contracts/EvmSide.sol",
    "abi": [
        {
            "anonymous": false,
            "inputs": [
                {
                    "indexed": true,
                    "internalType": "address",
                    "name": "mappedToken",
                    "type": "address"
                },
                {
                    "indexed": true,
                    "internalType": "address",
                    "name": "evmAccount",
                    "type": "address"
                },
                {
                    "indexed": true,
                    "internalType": "address",
                    "name": "cfxAccount",
                    "type": "address"
                },
                {
                    "indexed": false,
                    "internalType": "uint256",
                    "name": "amount",
                    "type": "uint256"
                }
            ],
            "name": "LockedMappedToken",
            "type": "event"
        },
        {
            "anonymous": false,
            "inputs": [
                {
                    "indexed": true,
                    "internalType": "address",
                    "name": "token",
                    "type": "address"
                },
                {
                    "indexed": true,
                    "internalType": "address",
                    "name": "evmAccount",
                    "type": "address"
                },
                {
                    "indexed": true,
                    "internalType": "address",
                    "name": "cfxAccount",
                    "type": "address"
                },
                {
                    "indexed": false,
                    "internalType": "uint256",
                    "name": "amount",
                    "type": "uint256"
                }
            ],
            "name": "LockedToken",
            "type": "event"
        },
        {
            "inputs": [
                {
                    "internalType": "address",
                    "name": "_token",
                    "type": "address"
                },
                {
                    "internalType": "address",
                    "name": "_evmAccount",
                    "type": "address"
                },
                {
                    "internalType": "address",
                    "name": "_cfxAccount",
                    "type": "address"
                },
                {
                    "internalType": "uint256",
                    "name": "_amount",
                    "type": "uint256"
                }
            ],
            "name": "burn",
            "outputs": [],
            "stateMutability": "nonpayable",
            "type": "function"
        },
        {
            "inputs": [],
            "name": "cfxSide",
            "outputs": [
                {
                    "internalType": "address",
                    "name": "",
                    "type": "address"
                }
            ],
            "stateMutability": "view",
            "type": "function"
        },
        {
            "inputs": [
                {
                    "internalType": "address",
                    "name": "",
                    "type": "address"
                }
            ],
            "name": "crc20Metadata",
            "outputs": [
                {
                    "internalType": "string",
                    "name": "name",
                    "type": "string"
                },
                {
                    "internalType": "string",
                    "name": "symbol",
                    "type": "string"
                },
                {
                    "internalType": "uint8",
                    "name": "decimals",
                    "type": "uint8"
                },
                {
                    "internalType": "bool",
                    "name": "registered",
                    "type": "bool"
                }
            ],
            "stateMutability": "view",
            "type": "function"
        },
        {
            "inputs": [
                {
                    "internalType": "address",
                    "name": "_crc20",
                    "type": "address"
                }
            ],
            "name": "createMappedToken",
            "outputs": [],
            "stateMutability": "nonpayable",
            "type": "function"
        },
        {
            "inputs": [
                {
                    "internalType": "address",
                    "name": "_token",
                    "type": "address"
                },
                {
                    "internalType": "address",
                    "name": "_evmAccount",
                    "type": "address"
                },
                {
                    "internalType": "address",
                    "name": "_cfxAccount",
                    "type": "address"
                },
                {
                    "internalType": "uint256",
                    "name": "_amount",
                    "type": "uint256"
                }
            ],
            "name": "crossToCfx",
            "outputs": [],
            "stateMutability": "nonpayable",
            "type": "function"
        },
        {
            "inputs": [
                {
                    "internalType": "address",
                    "name": "_token",
                    "type": "address"
                }
            ],
            "name": "getTokenData",
            "outputs": [
                {
                    "internalType": "string",
                    "name": "",
                    "type": "string"
                },
                {
                    "internalType": "string",
                    "name": "",
                    "type": "string"
                },
                {
                    "internalType": "uint8",
                    "name": "",
                    "type": "uint8"
                }
            ],
            "stateMutability": "view",
            "type": "function"
        },
        {
            "inputs": [
                {
                    "internalType": "uint256",
                    "name": "offset",
                    "type": "uint256"
                }
            ],
            "name": "getTokens",
            "outputs": [
                {
                    "internalType": "address[]",
                    "name": "result",
                    "type": "address[]"
                },
                {
                    "internalType": "uint256",
                    "name": "cnt",
                    "type": "uint256"
                }
            ],
            "stateMutability": "view",
            "type": "function"
        },
        {
            "inputs": [
                {
                    "internalType": "address",
                    "name": "_mappedToken",
                    "type": "address"
                },
                {
                    "internalType": "address",
                    "name": "_cfxAccount",
                    "type": "address"
                },
                {
                    "internalType": "uint256",
                    "name": "_amount",
                    "type": "uint256"
                }
            ],
            "name": "lockMappedToken",
            "outputs": [],
            "stateMutability": "nonpayable",
            "type": "function"
        },
        {
            "inputs": [
                {
                    "internalType": "contract IERC20",
                    "name": "_token",
                    "type": "address"
                },
                {
                    "internalType": "address",
                    "name": "_cfxAccount",
                    "type": "address"
                },
                {
                    "internalType": "uint256",
                    "name": "_amount",
                    "type": "uint256"
                }
            ],
            "name": "lockToken",
            "outputs": [],
            "stateMutability": "nonpayable",
            "type": "function"
        },
        {
            "inputs": [
                {
                    "internalType": "address",
                    "name": "",
                    "type": "address"
                },
                {
                    "internalType": "address",
                    "name": "",
                    "type": "address"
                },
                {
                    "internalType": "address",
                    "name": "",
                    "type": "address"
                }
            ],
            "name": "lockedMappedToken",
            "outputs": [
                {
                    "internalType": "uint256",
                    "name": "",
                    "type": "uint256"
                }
            ],
            "stateMutability": "view",
            "type": "function"
        },
        {
            "inputs": [
                {
                    "internalType": "address",
                    "name": "",
                    "type": "address"
                },
                {
                    "internalType": "address",
                    "name": "",
                    "type": "address"
                },
                {
                    "internalType": "address",
                    "name": "",
                    "type": "address"
                }
            ],
            "name": "lockedToken",
            "outputs": [
                {
                    "internalType": "uint256",
                    "name": "",
                    "type": "uint256"
                }
            ],
            "stateMutability": "view",
            "type": "function"
        },
        {
            "inputs": [
                {
                    "internalType": "uint256",
                    "name": "",
                    "type": "uint256"
                }
            ],
            "name": "mappedTokenList",
            "outputs": [
                {
                    "internalType": "address",
                    "name": "",
                    "type": "address"
                }
            ],
            "stateMutability": "view",
            "type": "function"
        },
        {
            "inputs": [
                {
                    "internalType": "address",
                    "name": "",
                    "type": "address"
                }
            ],
            "name": "mappedTokens",
            "outputs": [
                {
                    "internalType": "address",
                    "name": "",
                    "type": "address"
                }
            ],
            "stateMutability": "view",
            "type": "function"
        },
        {
            "inputs": [
                {
                    "internalType": "address",
                    "name": "_token",
                    "type": "address"
                },
                {
                    "internalType": "address",
                    "name": "_to",
                    "type": "address"
                },
                {
                    "internalType": "uint256",
                    "name": "_amount",
                    "type": "uint256"
                }
            ],
            "name": "mint",
            "outputs": [],
            "stateMutability": "nonpayable",
            "type": "function"
        },
        {
            "inputs": [
                {
                    "internalType": "address",
                    "name": "_crc20",
                    "type": "address"
                },
                {
                    "internalType": "string",
                    "name": "_name",
                    "type": "string"
                },
                {
                    "internalType": "string",
                    "name": "_symbol",
                    "type": "string"
                },
                {
                    "internalType": "uint8",
                    "name": "_decimals",
                    "type": "uint8"
                }
            ],
            "name": "registerCRC20",
            "outputs": [],
            "stateMutability": "nonpayable",
            "type": "function"
        },
        {
            "inputs": [],
            "name": "setCfxSide",
            "outputs": [],
            "stateMutability": "nonpayable",
            "type": "function"
        },
        {
            "inputs": [
                {
                    "internalType": "address",
                    "name": "",
                    "type": "address"
                }
            ],
            "name": "sourceTokens",
            "outputs": [
                {
                    "internalType": "address",
                    "name": "",
                    "type": "address"
                }
            ],
            "stateMutability": "view",
            "type": "function"
        },
        {
            "inputs": [
                {
                    "internalType": "address",
                    "name": "_token",
                    "type": "address"
                },
                {
                    "internalType": "address",
                    "name": "_evmAccount",
                    "type": "address"
                },
                {
                    "internalType": "uint256",
                    "name": "_amount",
                    "type": "uint256"
                }
            ],
            "name": "withdrawFromCfx",
            "outputs": [],
            "stateMutability": "nonpayable",
            "type": "function"
        }
    ],
    "bytecode": "0x60806040526003805460ff1916905534801561001a57600080fd5b5061314a8061002a6000396000f3fe60806040523480156200001157600080fd5b5060043610620001305760003560e01c80639218b81f11620000b1578063c455492a116200007b578063c455492a14620002dd578063c6c3bbe614620002f4578063d3c9cc26146200030b578063d912cfc91462000332578063e6ede14d14620003665762000130565b80639218b81f146200024357806395227261146200025a578063a547ee541462000283578063bbce3ca114620002c65762000130565b80634b31714311620000ff5780634b31714314620001c65780636fcfa4ce14620001df578063772850f614620001e9578063849cd5cf14620002005780638fe3fb8a146200022c5762000130565b806306b5bbd0146200013557806313ff7e9f146200014e5780631d4347a8146200017f57806338e3eadf1462000196575b600080fd5b6200014c6200014636600462001bdb565b62000392565b005b620001656200015f36600462001b14565b62000603565b604051620001769392919062001e93565b60405180910390f35b6200014c6200019036600462001bdb565b6200077c565b620001ad620001a736600462001d4f565b620008fe565b6040516001600160a01b03909116815260200162000176565b600354620001ad9061010090046001600160a01b031681565b6200014c62000929565b6200014c620001fa36600462001b84565b620009a2565b620001ad6200021136600462001b14565b6001602052600090815260409020546001600160a01b031681565b6200014c6200023d36600462001c20565b62000bec565b6200014c6200025436600462001bdb565b62000d6b565b620002716200026b36600462001b14565b62000e67565b60405162000176949392919062001ed0565b620002b76200029436600462001b33565b600660209081526000938452604080852082529284528284209052825290205481565b60405190815260200162000176565b6200014c620002d736600462001b14565b62000fb5565b6200014c620002ee36600462001b84565b620011bf565b6200014c6200030536600462001bdb565b6200132e565b620003226200031c36600462001d4f565b62001483565b6040516200017692919062001e2b565b620002b76200034336600462001b33565b600560209081526000938452604080852082529284528284209052825290205481565b620001ad6200037736600462001b14565b6000602081905290815260409020546001600160a01b031681565b60035460ff1615620003c15760405162461bcd60e51b8152600401620003b89062001f15565b60405180910390fd5b6003805460ff191660019081179091556001600160a01b038481166000908152602092909252604090912054166200043c5760405162461bcd60e51b815260206004820152601960248201527f45766d536964653a206e6f74206d617070656420746f6b656e000000000000006044820152606401620003b8565b6001600160a01b0380841660009081526005602090815260408083203384528252808320938616835292905220548015620004f75760405163a9059cbb60e01b8152336004820152602481018290526001600160a01b0385169063a9059cbb90604401602060405180830381600087803b158015620004ba57600080fd5b505af1158015620004cf573d6000803e3d6000fd5b505050506040513d601f19601f82011682018060405250810190620004f5919062001cb1565b505b81156200058a576040516323b872dd60e01b8152336004820152306024820152604481018390526001600160a01b038516906323b872dd90606401602060405180830381600087803b1580156200054d57600080fd5b505af115801562000562573d6000803e3d6000fd5b505050506040513d601f19601f8201168201806040525081019062000588919062001cb1565b505b6001600160a01b0384811660008181526005602090815260408083203380855290835281842095891680855295835292819020879055518681529192917f7aeb683c7b66b14a27307d810e14566200dd1d20a3d2a0df3721e1fabcda500591015b60405180910390a450506003805460ff191690555050565b6060806000836001600160a01b03166306fdde036040518163ffffffff1660e01b815260040160006040518083038186803b1580156200064257600080fd5b505afa15801562000657573d6000803e3d6000fd5b505050506040513d6000823e601f3d908101601f1916820160405262000681919081019062001cd3565b846001600160a01b03166395d89b416040518163ffffffff1660e01b815260040160006040518083038186803b158015620006bb57600080fd5b505afa158015620006d0573d6000803e3d6000fd5b505050506040513d6000823e601f3d908101601f19168201604052620006fa919081019062001cd3565b856001600160a01b031663313ce5676040518163ffffffff1660e01b815260040160206040518083038186803b1580156200073457600080fd5b505afa15801562000749573d6000803e3d6000fd5b505050506040513d601f19601f820116820180604052508101906200076f919062001d68565b9250925092509193909250565b60035460ff1615620007a25760405162461bcd60e51b8152600401620003b89062001f15565b6003805460ff191660019081179091556001600160a01b03848116600090815260209290925260409091205416156200082f5760405162461bcd60e51b815260206004820152602860248201527f45766d536964653a20746f6b656e206973206d61707065642066726f6d20636f604482015267726520737061636560c01b6064820152608401620003b8565b6001600160a01b03808416600090815260066020908152604080832033845282528083209386168352929052205480156200087a576200087a6001600160a01b0385163383620015bf565b81156200089857620008986001600160a01b03851633308562001624565b6001600160a01b0384811660008181526006602090815260408083203380855290835281842095891680855295835292819020879055518681529192917fbe79b9b5a24f462fba93ede61593f1851d2b06201d20e54e0e87e588a78301749101620005eb565b600281815481106200090f57600080fd5b6000918252602090912001546001600160a01b0316905081565b60035461010090046001600160a01b031615620009895760405162461bcd60e51b815260206004820152601d60248201527f45766d536964653a2063667820736964652073657420616c72656164790000006044820152606401620003b8565b60038054610100600160a81b0319163361010002179055565b60035460ff1615620009c85760405162461bcd60e51b8152600401620003b89062001f15565b60038054600160ff19909116179081905561010090046001600160a01b0316331462000a085760405162461bcd60e51b8152600401620003b89062001f41565b6001600160a01b038481166000908152602081905260409020541662000a715760405162461bcd60e51b815260206004820152601c60248201527f45766d536964653a20746f6b656e206973206e6f74206d6170706564000000006044820152606401620003b8565b6001600160a01b0380851660009081526020818152604080832054841680845260058352818420888616855283528184209487168452939091529020548281101562000afc5760405162461bcd60e51b815260206004820152601960248201527845766d536964653a20696e737566666963656e74206c6f636b60381b6044820152606401620003b8565b604051632770a7eb60e21b8152306004820152602481018490526001600160a01b03831690639dc29fac90604401600060405180830381600087803b15801562000b4557600080fd5b505af115801562000b5a573d6000803e3d6000fd5b50505050828162000b6c919062001ff2565b6001600160a01b0383811660008181526005602090815260408083208b8616808552908352818420958b168085529583529281902086905551858152949550929390927f7aeb683c7b66b14a27307d810e14566200dd1d20a3d2a0df3721e1fabcda5005910160405180910390a450506003805460ff1916905550505050565b60035460ff161562000c125760405162461bcd60e51b8152600401620003b89062001f15565b60038054600160ff19909116179081905561010090046001600160a01b0316331462000c525760405162461bcd60e51b8152600401620003b89062001f41565b6001600160a01b038416600090815260046020526040902060020154610100900460ff161562000cbb5760405162461bcd60e51b8152602060048201526013602482015272115d9b54da59194e881c9959da5cdd195c9959606a1b6044820152606401620003b8565b60408051608081018252848152602080820185905260ff841682840152600160608301526001600160a01b03871660009081526004825292909220815180519293849362000d0d928492019062001a09565b50602082810151805162000d28926001850192019062001a09565b5060408201516002909101805460609093015115156101000261ff001960ff90931660ff1994851617929092169190911790556003805490911690555050505050565b60035460ff161562000d915760405162461bcd60e51b8152600401620003b89062001f15565b60038054600160ff19909116179081905561010090046001600160a01b0316331462000dd15760405162461bcd60e51b8152600401620003b89062001f41565b60405163a9059cbb60e01b81526001600160a01b0383811660048301526024820183905284169063a9059cbb90604401602060405180830381600087803b15801562000e1c57600080fd5b505af115801562000e31573d6000803e3d6000fd5b505050506040513d601f19601f8201168201806040525081019062000e57919062001cb1565b50506003805460ff191690555050565b60046020526000908152604090208054819062000e84906200203b565b80601f016020809104026020016040519081016040528092919081815260200182805462000eb2906200203b565b801562000f035780601f1062000ed75761010080835404028352916020019162000f03565b820191906000526020600020905b81548152906001019060200180831162000ee557829003601f168201915b50505050509080600101805462000f1a906200203b565b80601f016020809104026020016040519081016040528092919081815260200182805462000f48906200203b565b801562000f995780601f1062000f6d5761010080835404028352916020019162000f99565b820191906000526020600020905b81548152906001019060200180831162000f7b57829003601f168201915b5050506002909301549192505060ff8082169161010090041684565b6001600160a01b038116600090815260046020526040902060020154610100900460ff16620010275760405162461bcd60e51b815260206004820152601760248201527f45766d536964653a206e6f7420726567697374657265640000000000000000006044820152606401620003b8565b6001600160a01b0381166000908152600460205260408082208151608081019092528054829082906200105a906200203b565b80601f016020809104026020016040519081016040528092919081815260200182805462001088906200203b565b8015620010d95780601f10620010ad57610100808354040283529160200191620010d9565b820191906000526020600020905b815481529060010190602001808311620010bb57829003601f168201915b50505050508152602001600182018054620010f4906200203b565b80601f016020809104026020016040519081016040528092919081815260200182805462001122906200203b565b8015620011735780601f10620011475761010080835404028352916020019162001173565b820191906000526020600020905b8154815290600101906020018083116200115557829003601f168201915b50505091835250506002919091015460ff80821660208085019190915261010090920416151560409283015282519083015191830151929350620011ba9285929062001664565b505050565b60035460ff1615620011e55760405162461bcd60e51b8152600401620003b89062001f15565b60038054600160ff19909116179081905561010090046001600160a01b03163314620012255760405162461bcd60e51b8152600401620003b89062001f41565b6001600160a01b038085166000908152600660209081526040808320878516845282528083209386168352929052205481811015620012a35760405162461bcd60e51b815260206004820152601960248201527845766d536964653a20696e737566666963656e74206c6f636b60381b6044820152606401620003b8565b620012af828262001ff2565b6001600160a01b0386811660008181526006602090815260408083208a8616808552908352818420958a168085529583529281902086905551858152949550929390927fbe79b9b5a24f462fba93ede61593f1851d2b06201d20e54e0e87e588a7830174910160405180910390a450506003805460ff19169055505050565b60035460ff1615620013545760405162461bcd60e51b8152600401620003b89062001f15565b60038054600160ff19909116179081905561010090046001600160a01b03163314620013945760405162461bcd60e51b8152600401620003b89062001f41565b6001600160a01b0383811660009081526020819052604090205416620013fd5760405162461bcd60e51b815260206004820152601c60248201527f45766d536964653a20746f6b656e206973206e6f74206d6170706564000000006044820152606401620003b8565b6001600160a01b03838116600090815260208190526040908190205490516340c10f1960e01b81528483166004820152602481018490529116906340c10f1990604401600060405180830381600087803b1580156200145b57600080fd5b505af115801562001470573d6000803e3d6000fd5b50506003805460ff191690555050505050565b6002546060906000816200149985606462001fd7565b10620014a65781620014b3565b620014b384606462001fd7565b905083811115620015b957620014ca848262001ff2565b67ffffffffffffffff811115620014f157634e487b7160e01b600052604160045260246000fd5b6040519080825280602002602001820160405280156200151b578160200160208202803683370190505b509250835b81811015620015b757600281815481106200154b57634e487b7160e01b600052603260045260246000fd5b6000918252602090912001546001600160a01b0316846200156d878462001ff2565b815181106200158c57634e487b7160e01b600052603260045260246000fd5b6001600160a01b0390921660209283029190910190910152620015af8162002078565b905062001520565b505b50915091565b6040516001600160a01b038316602482015260448101829052620011ba90849063a9059cbb60e01b906064015b60408051601f198184030181529190526020810180516001600160e01b03166001600160e01b031990931692909217909152620017a5565b6040516001600160a01b03808516602483015283166044820152606481018290526200165e9085906323b872dd60e01b90608401620015ec565b50505050565b6001600160a01b0384811660009081526020819052604081205490911662001780576040516bffffffffffffffffffffffff19606087901b166020820152603401604051602081830303815290604052805190602001203086868686604051620016ce9062001a98565b620016de95949392919062001dd3565b8190604051809103906000f5905080158015620016ff573d6000803e3d6000fd5b506001600160a01b0380871660008181526020818152604080832080549587166001600160a01b031996871681179091558352600191829052822080548516841790556002805491820181559091527f405787fa12a823e0f2b7631cc41b3ba8828b3321ca811111fa75cd3aa3bb5ace01805490921617905590506200179d565b506001600160a01b03808516600090815260208190526040902054165b949350505050565b6000620017fc826040518060400160405280602081526020017f5361666545524332303a206c6f772d6c6576656c2063616c6c206661696c6564815250856001600160a01b03166200187e9092919063ffffffff16565b805190915015620011ba57808060200190518101906200181d919062001cb1565b620011ba5760405162461bcd60e51b815260206004820152602a60248201527f5361666545524332303a204552433230206f7065726174696f6e20646964206e6044820152691bdd081cdd58d8d9595960b21b6064820152608401620003b8565b60606200188f848460008562001899565b90505b9392505050565b606082471015620018fc5760405162461bcd60e51b815260206004820152602660248201527f416464726573733a20696e73756666696369656e742062616c616e636520666f6044820152651c8818d85b1b60d21b6064820152608401620003b8565b843b6200194c5760405162461bcd60e51b815260206004820152601d60248201527f416464726573733a2063616c6c20746f206e6f6e2d636f6e74726163740000006044820152606401620003b8565b600080866001600160a01b031685876040516200196a919062001db5565b60006040518083038185875af1925050503d8060008114620019a9576040519150601f19603f3d011682016040523d82523d6000602084013e620019ae565b606091505b5091509150620019c0828286620019cb565b979650505050505050565b60608315620019dc57508162001892565b825115620019ed5782518084602001fd5b8160405162461bcd60e51b8152600401620003b8919062001e7e565b82805462001a17906200203b565b90600052602060002090601f01602090048101928262001a3b576000855562001a86565b82601f1062001a5657805160ff191683800117855562001a86565b8280016001018555821562001a86579182015b8281111562001a8657825182559160200191906001019062001a69565b5062001a9492915062001aa6565b5090565b61102980620020ec83390190565b5b8082111562001a94576000815560010162001aa7565b600082601f83011262001ace578081fd5b813562001ae562001adf8262001fac565b62001f78565b81815284602083860101111562001afa578283fd5b816020850160208301379081016020019190915292915050565b60006020828403121562001b26578081fd5b81356200189281620020c2565b60008060006060848603121562001b48578182fd5b833562001b5581620020c2565b9250602084013562001b6781620020c2565b9150604084013562001b7981620020c2565b809150509250925092565b6000806000806080858703121562001b9a578081fd5b843562001ba781620020c2565b9350602085013562001bb981620020c2565b9250604085013562001bcb81620020c2565b9396929550929360600135925050565b60008060006060848603121562001bf0578283fd5b833562001bfd81620020c2565b9250602084013562001c0f81620020c2565b929592945050506040919091013590565b6000806000806080858703121562001c36578384fd5b843562001c4381620020c2565b9350602085013567ffffffffffffffff8082111562001c60578485fd5b62001c6e8883890162001abd565b9450604087013591508082111562001c84578384fd5b5062001c938782880162001abd565b925050606085013562001ca681620020db565b939692955090935050565b60006020828403121562001cc3578081fd5b8151801515811462001892578182fd5b60006020828403121562001ce5578081fd5b815167ffffffffffffffff81111562001cfc578182fd5b8201601f8101841362001d0d578182fd5b805162001d1e62001adf8262001fac565b81815285602083850101111562001d33578384fd5b62001d468260208301602086016200200c565b95945050505050565b60006020828403121562001d61578081fd5b5035919050565b60006020828403121562001d7a578081fd5b81516200189281620020db565b6000815180845262001da18160208601602086016200200c565b601f01601f19169290920160200192915050565b6000825162001dc98184602087016200200c565b9190910192915050565b6001600160a01b0386811682528516602082015260a06040820181905260009062001e019083018662001d87565b828103606084015262001e15818662001d87565b91505060ff831660808301529695505050505050565b604080825283519082018190526000906020906060840190828701845b8281101562001e6f5781516001600160a01b03168452928401929084019060010162001e48565b50505092019290925292915050565b60006020825262001892602083018462001d87565b60006060825262001ea8606083018662001d87565b828103602084015262001ebc818662001d87565b91505060ff83166040830152949350505050565b60006080825262001ee5608083018762001d87565b828103602084015262001ef9818762001d87565b60ff959095166040840152505090151560609091015292915050565b602080825260129082015271149151539514905390d657d253131151d05360721b604082015260600190565b6020808252601f908201527f45766d536964653a2073656e646572206973206e6f7420636678207369646500604082015260600190565b604051601f8201601f1916810167ffffffffffffffff8111828210171562001fa45762001fa4620020ac565b604052919050565b600067ffffffffffffffff82111562001fc95762001fc9620020ac565b50601f01601f191660200190565b6000821982111562001fed5762001fed62002096565b500190565b60008282101562002007576200200762002096565b500390565b60005b83811015620020295781810151838201526020016200200f565b838111156200165e5750506000910152565b6002810460018216806200205057607f821691505b602082108114156200207257634e487b7160e01b600052602260045260246000fd5b50919050565b60006000198214156200208f576200208f62002096565b5060010190565b634e487b7160e01b600052601160045260246000fd5b634e487b7160e01b600052604160045260246000fd5b6001600160a01b0381168114620020d857600080fd5b50565b60ff81168114620020d857600080fdfe60806040523480156200001157600080fd5b50604051620010293803806200102983398101604081905262000034916200022d565b82604051602001620000479190620002d5565b6040516020818303038152906040528282826003908051906020019062000070929190620000db565b50815162000086906004906020850190620000db565b506005805460ff191660ff9290921691909117610100600160a81b0319166101006001600160a01b03998a16021790555050600680546001600160a01b0319169490951693909317909355506200038c915050565b828054620000e99062000339565b90600052602060002090601f0160209004810192826200010d576000855562000158565b82601f106200012857805160ff191683800117855562000158565b8280016001018555821562000158579182015b82811115620001585782518255916020019190600101906200013b565b50620001669291506200016a565b5090565b5b808211156200016657600081556001016200016b565b80516001600160a01b03811681146200019957600080fd5b919050565b600082601f830112620001af578081fd5b81516001600160401b0380821115620001cc57620001cc62000376565b604051601f8301601f19908116603f01168101908282118183101715620001f757620001f762000376565b8160405283815286602085880101111562000210578485fd5b6200022384602083016020890162000306565b9695505050505050565b600080600080600060a0868803121562000245578081fd5b620002508662000181565b9450620002606020870162000181565b60408701519094506001600160401b03808211156200027d578283fd5b6200028b89838a016200019e565b94506060880151915080821115620002a1578283fd5b50620002b0888289016200019e565b925050608086015160ff81168114620002c7578182fd5b809150509295509295909350565b600066026b0b83832b2160cd1b82528251620002f981600785016020870162000306565b9190910160070192915050565b60005b838110156200032357818101518382015260200162000309565b8381111562000333576000848401525b50505050565b6002810460018216806200034e57607f821691505b602082108114156200037057634e487b7160e01b600052602260045260246000fd5b50919050565b634e487b7160e01b600052604160045260246000fd5b610c8d806200039c6000396000f3fe608060405234801561001057600080fd5b50600436106100f55760003560e01c80635f8aaa6911610097578063a457c2d711610066578063a457c2d7146101f6578063a9059cbb14610209578063dd62ed3e1461021c578063f851a44014610255576100f5565b80635f8aaa691461019d57806370a08231146101c857806395d89b41146101db5780639dc29fac146101e3576100f5565b806323b872dd116100d357806323b872dd1461014d578063313ce56714610160578063395093511461017557806340c10f1914610188576100f5565b806306fdde03146100fa578063095ea7b31461011857806318160ddd1461013b575b600080fd5b61010261026d565b60405161010f9190610b84565b60405180910390f35b61012b610126366004610b5b565b6102ff565b604051901515815260200161010f565b6002545b60405190815260200161010f565b61012b61015b366004610b20565b610315565b60055460405160ff909116815260200161010f565b61012b610183366004610b5b565b6103c4565b61019b610196366004610b5b565b610400565b005b6006546101b0906001600160a01b031681565b6040516001600160a01b03909116815260200161010f565b61013f6101d6366004610acd565b610466565b610102610485565b61019b6101f1366004610b5b565b610494565b61012b610204366004610b5b565b6104f6565b61012b610217366004610b5b565b61058f565b61013f61022a366004610aee565b6001600160a01b03918216600090815260016020908152604080832093909416825291909152205490565b6005546101b09061010090046001600160a01b031681565b60606003805461027c90610c06565b80601f01602080910402602001604051908101604052809291908181526020018280546102a890610c06565b80156102f55780601f106102ca576101008083540402835291602001916102f5565b820191906000526020600020905b8154815290600101906020018083116102d857829003601f168201915b5050505050905090565b600061030c33848461059c565b50600192915050565b60006103228484846106c1565b6001600160a01b0384166000908152600160209081526040808320338452909152902054828110156103ac5760405162461bcd60e51b815260206004820152602860248201527f45524332303a207472616e7366657220616d6f756e74206578636565647320616044820152676c6c6f77616e636560c01b60648201526084015b60405180910390fd5b6103b9853385840361059c565b506001949350505050565b3360008181526001602090815260408083206001600160a01b0387168452909152812054909161030c9185906103fb908690610bd7565b61059c565b60055461010090046001600160a01b031633146104585760405162461bcd60e51b815260206004820152601660248201527526b0b83832b22a37b5b2b71d103737ba1030b236b4b760511b60448201526064016103a3565b6104628282610890565b5050565b6001600160a01b0381166000908152602081905260409020545b919050565b60606004805461027c90610c06565b60055461010090046001600160a01b031633146104ec5760405162461bcd60e51b815260206004820152601660248201527526b0b83832b22a37b5b2b71d103737ba1030b236b4b760511b60448201526064016103a3565b6104628282610970565b3360009081526001602090815260408083206001600160a01b0386168452909152812054828110156105785760405162461bcd60e51b815260206004820152602560248201527f45524332303a2064656372656173656420616c6c6f77616e63652062656c6f77604482015264207a65726f60d81b60648201526084016103a3565b610585338585840361059c565b5060019392505050565b600061030c3384846106c1565b6001600160a01b0383166105fe5760405162461bcd60e51b8152602060048201526024808201527f45524332303a20617070726f76652066726f6d20746865207a65726f206164646044820152637265737360e01b60648201526084016103a3565b6001600160a01b03821661065f5760405162461bcd60e51b815260206004820152602260248201527f45524332303a20617070726f766520746f20746865207a65726f206164647265604482015261737360f01b60648201526084016103a3565b6001600160a01b0383811660008181526001602090815260408083209487168084529482529182902085905590518481527f8c5be1e5ebec7d5bd14f71427d1e84f3dd0314c0f7b2291e5b200ac8c7c3b92591015b60405180910390a3505050565b6001600160a01b0383166107255760405162461bcd60e51b815260206004820152602560248201527f45524332303a207472616e736665722066726f6d20746865207a65726f206164604482015264647265737360d81b60648201526084016103a3565b6001600160a01b0382166107875760405162461bcd60e51b815260206004820152602360248201527f45524332303a207472616e7366657220746f20746865207a65726f206164647260448201526265737360e81b60648201526084016103a3565b6001600160a01b038316600090815260208190526040902054818110156107ff5760405162461bcd60e51b815260206004820152602660248201527f45524332303a207472616e7366657220616d6f756e7420657863656564732062604482015265616c616e636560d01b60648201526084016103a3565b6001600160a01b03808516600090815260208190526040808220858503905591851681529081208054849290610836908490610bd7565b92505081905550826001600160a01b0316846001600160a01b03167fddf252ad1be2c89b69c2b068fc378daa952ba7f163c4a11628f55a4df523b3ef8460405161088291815260200190565b60405180910390a350505050565b6001600160a01b0382166108e65760405162461bcd60e51b815260206004820152601f60248201527f45524332303a206d696e7420746f20746865207a65726f20616464726573730060448201526064016103a3565b80600260008282546108f89190610bd7565b90915550506001600160a01b03821660009081526020819052604081208054839290610925908490610bd7565b90915550506040518181526001600160a01b038316906000907fddf252ad1be2c89b69c2b068fc378daa952ba7f163c4a11628f55a4df523b3ef9060200160405180910390a3610462565b6001600160a01b0382166109d05760405162461bcd60e51b815260206004820152602160248201527f45524332303a206275726e2066726f6d20746865207a65726f206164647265736044820152607360f81b60648201526084016103a3565b6001600160a01b03821660009081526020819052604090205481811015610a445760405162461bcd60e51b815260206004820152602260248201527f45524332303a206275726e20616d6f756e7420657863656564732062616c616e604482015261636560f01b60648201526084016103a3565b6001600160a01b0383166000908152602081905260408120838303905560028054849290610a73908490610bef565b90915550506040518281526000906001600160a01b038516907fddf252ad1be2c89b69c2b068fc378daa952ba7f163c4a11628f55a4df523b3ef906020016106b4565b80356001600160a01b038116811461048057600080fd5b600060208284031215610ade578081fd5b610ae782610ab6565b9392505050565b60008060408385031215610b00578081fd5b610b0983610ab6565b9150610b1760208401610ab6565b90509250929050565b600080600060608486031215610b34578081fd5b610b3d84610ab6565b9250610b4b60208501610ab6565b9150604084013590509250925092565b60008060408385031215610b6d578182fd5b610b7683610ab6565b946020939093013593505050565b6000602080835283518082850152825b81811015610bb057858101830151858201604001528201610b94565b81811115610bc15783604083870101525b50601f01601f1916929092016040019392505050565b60008219821115610bea57610bea610c41565b500190565b600082821015610c0157610c01610c41565b500390565b600281046001821680610c1a57607f821691505b60208210811415610c3b57634e487b7160e01b600052602260045260246000fd5b50919050565b634e487b7160e01b600052601160045260246000fdfea26469706673582212209d8b9bfa1fff86c333ff0d0055755af08cda5986b26dae7afd8fff6c5177e7ef64736f6c63430008020033a26469706673582212209662842fdf920c4c89b817652d730241c9760921b9992e99bed8e30e733e96fa64736f6c63430008020033",
    "linkReferences": {},
    "deployedLinkReferences": {}
}