{
  "_format": "hh-sol-artifact-1",
  "contractName": "Bridge",
  "sourceName": "contracts/Bridge.sol",
  "abi": [
    {
      "anonymous": false,
      "inputs": [
        {
          "indexed": false,
          "internalType": "bytes32",
          "name": "claimId",
          "type": "bytes32"
        },
        {
          "indexed": false,
          "internalType": "address",
          "name": "token",
          "type": "address"
        },
        {
          "indexed": false,
          "internalType": "address",
          "name": "account",
          "type": "address"
        },
        {
          "indexed": false,
          "internalType": "uint256",
          "name": "amount",
          "type": "uint256"
        },
        {
          "indexed": false,
          "internalType": "uint256",
          "name": "srcChainId",
          "type": "uint256"
        },
        {
          "indexed": false,
          "internalType": "bytes32",
          "name": "depositId",
          "type": "bytes32"
        },
        {
          "indexed": false,
          "internalType": "address",
          "name": "depositor",
          "type": "address"
        },
        {
          "indexed": false,
          "internalType": "enum Bridge.ClaimResult",
          "name": "result",
          "type": "uint8"
        }
      ],
      "name": "Claimed",
      "type": "event"
    },
    {
      "anonymous": false,
      "inputs": [
        {
          "indexed": false,
          "internalType": "bytes32",
          "name": "depositId",
          "type": "bytes32"
        },
        {
          "indexed": false,
          "internalType": "address",
          "name": "depositor",
          "type": "address"
        },
        {
          "indexed": false,
          "internalType": "address",
          "name": "token",
          "type": "address"
        },
        {
          "indexed": false,
          "internalType": "uint256",
          "name": "amount",
          "type": "uint256"
        },
        {
          "indexed": false,
          "internalType": "uint256",
          "name": "destChainId",
          "type": "uint256"
        },
        {
          "indexed": false,
          "internalType": "address",
          "name": "destAccount",
          "type": "address"
        }
      ],
      "name": "Deposited",
      "type": "event"
    },
    {
      "anonymous": false,
      "inputs": [
        {
          "indexed": false,
          "internalType": "address",
          "name": "token",
          "type": "address"
        },
        {
          "indexed": false,
          "internalType": "uint256",
          "name": "amount",
          "type": "uint256"
        },
        {
          "indexed": false,
          "internalType": "address",
          "name": "account",
          "type": "address"
        }
      ],
      "name": "LiquidityAdded",
      "type": "event"
    },
    {
      "anonymous": false,
      "inputs": [
        {
          "indexed": false,
          "internalType": "address",
          "name": "token",
          "type": "address"
        },
        {
          "indexed": false,
          "internalType": "uint256",
          "name": "amount",
          "type": "uint256"
        },
        {
          "indexed": false,
          "internalType": "address",
          "name": "account",
          "type": "address"
        }
      ],
      "name": "LiquidityRemoved",
      "type": "event"
    },
    {
      "anonymous": false,
      "inputs": [
        {
          "indexed": false,
          "internalType": "address",
          "name": "account",
          "type": "address"
        }
      ],
      "name": "Paused",
      "type": "event"
    },
    {
      "anonymous": false,
      "inputs": [
        {
          "indexed": true,
          "internalType": "bytes32",
          "name": "role",
          "type": "bytes32"
        },
        {
          "indexed": true,
          "internalType": "bytes32",
          "name": "previousAdminRole",
          "type": "bytes32"
        },
        {
          "indexed": true,
          "internalType": "bytes32",
          "name": "newAdminRole",
          "type": "bytes32"
        }
      ],
      "name": "RoleAdminChanged",
      "type": "event"
    },
    {
      "anonymous": false,
      "inputs": [
        {
          "indexed": true,
          "internalType": "bytes32",
          "name": "role",
          "type": "bytes32"
        },
        {
          "indexed": true,
          "internalType": "address",
          "name": "account",
          "type": "address"
        },
        {
          "indexed": true,
          "internalType": "address",
          "name": "sender",
          "type": "address"
        }
      ],
      "name": "RoleGranted",
      "type": "event"
    },
    {
      "anonymous": false,
      "inputs": [
        {
          "indexed": true,
          "internalType": "bytes32",
          "name": "role",
          "type": "bytes32"
        },
        {
          "indexed": true,
          "internalType": "address",
          "name": "account",
          "type": "address"
        },
        {
          "indexed": true,
          "internalType": "address",
          "name": "sender",
          "type": "address"
        }
      ],
      "name": "RoleRevoked",
      "type": "event"
    },
    {
      "anonymous": false,
      "inputs": [
        {
          "indexed": false,
          "internalType": "address",
          "name": "account",
          "type": "address"
        }
      ],
      "name": "Unpaused",
      "type": "event"
    },
    {
      "inputs": [],
      "name": "DEFAULT_ADMIN_ROLE",
      "outputs": [
        {
          "internalType": "bytes32",
          "name": "",
          "type": "bytes32"
        }
      ],
      "stateMutability": "view",
      "type": "function"
    },
    {
      "inputs": [],
      "name": "NATIVE",
      "outputs": [
        {
          "internalType": "address",
          "name": "",
          "type": "address"
        }
      ],
      "stateMutability": "view",
      "type": "function"
    },
    {
      "inputs": [],
      "name": "PAUSER_ROLE",
      "outputs": [
        {
          "internalType": "bytes32",
          "name": "",
          "type": "bytes32"
        }
      ],
      "stateMutability": "view",
      "type": "function"
    },
    {
      "inputs": [
        {
          "internalType": "address",
          "name": "_token",
          "type": "address"
        },
        {
          "internalType": "uint256",
          "name": "_amount",
          "type": "uint256"
        }
      ],
      "name": "addLiquidity",
      "outputs": [],
      "stateMutability": "payable",
      "type": "function"
    },
    {
      "inputs": [
        {
          "internalType": "address",
          "name": "",
          "type": "address"
        }
      ],
      "name": "backToPegged",
      "outputs": [
        {
          "internalType": "address",
          "name": "",
          "type": "address"
        }
      ],
      "stateMutability": "view",
      "type": "function"
    },
    {
      "inputs": [
        {
          "components": [
            {
              "internalType": "uint256",
              "name": "srcChainId",
              "type": "uint256"
            },
            {
              "internalType": "bytes32",
              "name": "depositId",
              "type": "bytes32"
            },
            {
              "internalType": "address",
              "name": "depositor",
              "type": "address"
            },
            {
              "internalType": "address",
              "name": "receiver",
              "type": "address"
            },
            {
              "internalType": "address",
              "name": "token",
              "type": "address"
            },
            {
              "internalType": "uint256",
              "name": "amount",
              "type": "uint256"
            }
          ],
          "internalType": "struct Bridge.DepositInfo",
          "name": "_depositInfo",
          "type": "tuple"
        },
        {
          "internalType": "bytes",
          "name": "_signatures",
          "type": "bytes"
        }
      ],
      "name": "claim",
      "outputs": [],
      "stateMutability": "nonpayable",
      "type": "function"
    },
    {
      "inputs": [
        {
          "internalType": "bytes32",
          "name": "",
          "type": "bytes32"
        }
      ],
      "name": "claimed",
      "outputs": [
        {
          "internalType": "bool",
          "name": "",
          "type": "bool"
        }
      ],
      "stateMutability": "view",
      "type": "function"
    },
    {
      "inputs": [
        {
          "internalType": "address",
          "name": "_token",
          "type": "address"
        },
        {
          "internalType": "uint256",
          "name": "_amount",
          "type": "uint256"
        },
        {
          "internalType": "uint256",
          "name": "_destChainId",
          "type": "uint256"
        },
        {
          "internalType": "address",
          "name": "_destAccount",
          "type": "address"
        },
        {
          "internalType": "uint256",
          "name": "_nonce",
          "type": "uint256"
        }
      ],
      "name": "deposit",
      "outputs": [
        {
          "internalType": "bytes32",
          "name": "depositId",
          "type": "bytes32"
        }
      ],
      "stateMutability": "payable",
      "type": "function"
    },
    {
      "inputs": [
        {
          "internalType": "bytes32",
          "name": "",
          "type": "bytes32"
        }
      ],
      "name": "deposited",
      "outputs": [
        {
          "internalType": "bool",
          "name": "",
          "type": "bool"
        }
      ],
      "stateMutability": "view",
      "type": "function"
    },
    {
      "inputs": [
        {
          "internalType": "bytes32",
          "name": "role",
          "type": "bytes32"
        }
      ],
      "name": "getRoleAdmin",
      "outputs": [
        {
          "internalType": "bytes32",
          "name": "",
          "type": "bytes32"
        }
      ],
      "stateMutability": "view",
      "type": "function"
    },
    {
      "inputs": [
        {
          "internalType": "bytes32",
          "name": "role",
          "type": "bytes32"
        },
        {
          "internalType": "uint256",
          "name": "index",
          "type": "uint256"
        }
      ],
      "name": "getRoleMember",
      "outputs": [
        {
          "internalType": "address",
          "name": "",
          "type": "address"
        }
      ],
      "stateMutability": "view",
      "type": "function"
    },
    {
      "inputs": [
        {
          "internalType": "bytes32",
          "name": "role",
          "type": "bytes32"
        }
      ],
      "name": "getRoleMemberCount",
      "outputs": [
        {
          "internalType": "uint256",
          "name": "",
          "type": "uint256"
        }
      ],
      "stateMutability": "view",
      "type": "function"
    },
    {
      "inputs": [
        {
          "internalType": "bytes32",
          "name": "role",
          "type": "bytes32"
        },
        {
          "internalType": "address",
          "name": "account",
          "type": "address"
        }
      ],
      "name": "grantRole",
      "outputs": [],
      "stateMutability": "nonpayable",
      "type": "function"
    },
    {
      "inputs": [
        {
          "internalType": "bytes32",
          "name": "role",
          "type": "bytes32"
        },
        {
          "internalType": "address",
          "name": "account",
          "type": "address"
        }
      ],
      "name": "hasRole",
      "outputs": [
        {
          "internalType": "bool",
          "name": "",
          "type": "bool"
        }
      ],
      "stateMutability": "view",
      "type": "function"
    },
    {
      "inputs": [
        {
          "internalType": "address",
          "name": "_validator",
          "type": "address"
        }
      ],
      "name": "initialize",
      "outputs": [],
      "stateMutability": "nonpayable",
      "type": "function"
    },
    {
      "inputs": [],
      "name": "initialized",
      "outputs": [
        {
          "internalType": "bool",
          "name": "",
          "type": "bool"
        }
      ],
      "stateMutability": "view",
      "type": "function"
    },
    {
      "inputs": [],
      "name": "mintDomain",
      "outputs": [
        {
          "internalType": "bytes32",
          "name": "domain",
          "type": "bytes32"
        }
      ],
      "stateMutability": "view",
      "type": "function"
    },
    {
      "inputs": [],
      "name": "paused",
      "outputs": [
        {
          "internalType": "bool",
          "name": "",
          "type": "bool"
        }
      ],
      "stateMutability": "view",
      "type": "function"
    },
    {
      "inputs": [
        {
          "internalType": "address",
          "name": "",
          "type": "address"
        }
      ],
      "name": "peggedToBack",
      "outputs": [
        {
          "internalType": "address",
          "name": "",
          "type": "address"
        }
      ],
      "stateMutability": "view",
      "type": "function"
    },
    {
      "inputs": [
        {
          "internalType": "address",
          "name": "_token",
          "type": "address"
        },
        {
          "internalType": "uint256",
          "name": "_amount",
          "type": "uint256"
        }
      ],
      "name": "removeLiquidity",
      "outputs": [],
      "stateMutability": "payable",
      "type": "function"
    },
    {
      "inputs": [
        {
          "internalType": "bytes32",
          "name": "role",
          "type": "bytes32"
        },
        {
          "internalType": "address",
          "name": "account",
          "type": "address"
        }
      ],
      "name": "renounceRole",
      "outputs": [],
      "stateMutability": "nonpayable",
      "type": "function"
    },
    {
      "inputs": [
        {
          "internalType": "bytes32",
          "name": "role",
          "type": "bytes32"
        },
        {
          "internalType": "address",
          "name": "account",
          "type": "address"
        }
      ],
      "name": "revokeRole",
      "outputs": [],
      "stateMutability": "nonpayable",
      "type": "function"
    },
    {
      "inputs": [
        {
          "internalType": "address",
          "name": "_token",
          "type": "address"
        },
        {
          "internalType": "address",
          "name": "_peggedToken",
          "type": "address"
        }
      ],
      "name": "setPeggedToken",
      "outputs": [],
      "stateMutability": "nonpayable",
      "type": "function"
    },
    {
      "inputs": [
        {
          "internalType": "bytes4",
          "name": "interfaceId",
          "type": "bytes4"
        }
      ],
      "name": "supportsInterface",
      "outputs": [
        {
          "internalType": "bool",
          "name": "",
          "type": "bool"
        }
      ],
      "stateMutability": "view",
      "type": "function"
    },
    {
      "inputs": [],
      "name": "tokenSetter",
      "outputs": [
        {
          "internalType": "address",
          "name": "",
          "type": "address"
        }
      ],
      "stateMutability": "view",
      "type": "function"
    },
    {
      "inputs": [],
      "name": "validator",
      "outputs": [
        {
          "internalType": "address",
          "name": "",
          "type": "address"
        }
      ],
      "stateMutability": "view",
      "type": "function"
    }
  ],
  "bytecode": "0x60806040526000805460ff1916905534801561001a57600080fd5b506003805460ff1916905561231e806100346000396000f3fe6080604052600436106101815760003560e01c806391d14854116100d1578063ca15c8731161008a578063d547741f11610064578063d547741f14610463578063dd53ac9414610483578063e63ab1e9146104b9578063f1cc7910146104ed57610181565b8063ca15c873146103f3578063cc3c0f0614610413578063d4250f0d1461044357610181565b806391d1485414610356578063a0cf0aea14610376578063a201ccf61461038b578063a217fddf1461039e578063bf6ebe90146103b3578063c4d66de8146103d357610181565b806336568abe1161013e5780635c975abb116101185780635c975abb146102f657806368a5372a1461030e5780638da2d4f0146103235780639010d07c1461033657610181565b806336568abe1461028b5780633a5381b5146102ab57806356688700146102e357610181565b806301ffc9a714610186578063025a9bd3146101bb578063158ef93e146101dd5780631f36edcd146101fc578063248a9ca31461022c5780632f2ff15d1461026b575b600080fd5b34801561019257600080fd5b506101a66101a1366004611eee565b610523565b60405190151581526020015b60405180910390f35b3480156101c757600080fd5b506101db6101d6366004611dcb565b610550565b005b3480156101e957600080fd5b506000546101a690610100900460ff1681565b34801561020857600080fd5b506101a6610217366004611e93565b60066020526000908152604090205460ff1681565b34801561023857600080fd5b5061025d610247366004611e93565b6000908152600160208190526040909120015490565b6040519081526020016101b2565b34801561027757600080fd5b506101db610286366004611eab565b610601565b34801561029757600080fd5b506101db6102a6366004611eab565b61062c565b3480156102b757600080fd5b506008546102cb906001600160a01b031681565b6040516001600160a01b0390911681526020016101b2565b6101db6102f1366004611dfd565b6106aa565b34801561030257600080fd5b5060035460ff166101a6565b34801561031a57600080fd5b5061025d61088d565b61025d610331366004611e26565b6108e0565b34801561034257600080fd5b506102cb610351366004611ecd565b610af3565b34801561036257600080fd5b506101a6610371366004611eab565b610b14565b34801561038257600080fd5b506102cb600181565b6101db610399366004611dfd565b610b3f565b3480156103aa57600080fd5b5061025d600081565b3480156103bf57600080fd5b506101db6103ce366004611f16565b610e07565b3480156103df57600080fd5b506101db6103ee366004611db1565b6112fe565b3480156103ff57600080fd5b5061025d61040e366004611e93565b61139c565b34801561041f57600080fd5b506101a661042e366004611e93565b60076020526000908152604090205460ff1681565b34801561044f57600080fd5b506009546102cb906001600160a01b031681565b34801561046f57600080fd5b506101db61047e366004611eab565b6113b3565b34801561048f57600080fd5b506102cb61049e366004611db1565b6004602052600090815260409020546001600160a01b031681565b3480156104c557600080fd5b5061025d7f65d7a28e3265b37a6474929f336521b332c1681b933f6cb9f3376673440d862a81565b3480156104f957600080fd5b506102cb610508366004611db1565b6005602052600090815260409020546001600160a01b031681565b60006001600160e01b03198216635a05180f60e01b14806105485750610548826113d9565b90505b919050565b6009546001600160a01b031633146105b95760405162461bcd60e51b815260206004820152602160248201527f4272696467653a2073656e646572206973206e6f7420746f6b656e53657474656044820152603960f91b60648201526084015b60405180910390fd5b6001600160a01b0391821660008181526005602090815260408083208054969095166001600160a01b0319968716811790955593825260049052919091208054909216179055565b6000828152600160208190526040909120015461061d8161140e565b610627838361141b565b505050565b6001600160a01b038116331461069c5760405162461bcd60e51b815260206004820152602f60248201527f416363657373436f6e74726f6c3a2063616e206f6e6c792072656e6f756e636560448201526e103937b632b9903337b91039b2b63360891b60648201526084016105b0565b6106a6828261143d565b5050565b60005460ff16156106cd5760405162461bcd60e51b81526004016105b0906121ce565b6000805460ff191660011790556106e660035460ff1690565b156107035760405162461bcd60e51b81526004016105b090612177565b600081116107235760405162461bcd60e51b81526004016105b0906121a1565b6001600160a01b03808316600090815260056020526040902054168061075b5760405162461bcd60e51b81526004016105b090612148565b6001600160a01b038316600114156107bb578134146107b65760405162461bcd60e51b8152602060048201526017602482015276084e4d2c8ceca7440c2dadeeadce840dad2e6dac2e8c6d604b1b60448201526064016105b0565b6107d0565b6107d06001600160a01b03841633308561145f565b6040516340c10f1960e01b8152336004820152602481018390526001600160a01b038216906340c10f1990604401600060405180830381600087803b15801561081857600080fd5b505af115801561082c573d6000803e3d6000fd5b5050604080516001600160a01b03871681526020810186905233918101919091527fa21288bdd948f634bcd5a8bfc9825db1b01914f370ef82149e123b7c8dc3b65b925060600190505b60405180910390a150506000805460ff1916905550565b600046306040516020016108c592919091825260601b6001600160601b031916602082015263135a5b9d60e21b603482015260380190565b60405160208183030381529060405280519060200120905090565b6000805460ff16156109045760405162461bcd60e51b81526004016105b0906121ce565b6000805460ff1916600117905561091d60035460ff1690565b1561093a5760405162461bcd60e51b81526004016105b090612177565b6000851161095a5760405162461bcd60e51b81526004016105b0906121a1565b6001600160a01b038616600114156109ba578434146109b55760405162461bcd60e51b8152602060048201526017602482015276084e4d2c8ceca7440c2dadeeadce840dad2e6dac2e8c6d604b1b60448201526064016105b0565b610a72565b6001600160a01b038681166000908152600460205260409020541615610a5d5760405163079cc67960e41b8152336004820152602481018690526001600160a01b038716906379cc679090604401600060405180830381600087803b158015610a2257600080fd5b505af1158015610a36573d6000803e3d6000fd5b5050506001600160a01b039687166000908152600460205260409020549096169550610a72565b610a726001600160a01b03871633308861145f565b610a7f86868686866114d0565b604080518281523360208201526001600160a01b03898116828401526060820189905260808201889052861660a082015290519192507fb6a4132e7d5760bd5e1d6592d67b7e4efcd218188d5f98f700c2055729b47bd3919081900360c00190a16000805460ff1916905595945050505050565b6000828152600260205260408120610b0b90836115b7565b90505b92915050565b60009182526001602090815260408084206001600160a01b0393909316845291905290205460ff1690565b60005460ff1615610b625760405162461bcd60e51b81526004016105b0906121ce565b6000805460ff19166001179055610b7b60035460ff1690565b15610b985760405162461bcd60e51b81526004016105b090612177565b60008111610bb85760405162461bcd60e51b81526004016105b0906121a1565b6001600160a01b038083166000908152600460205260409020541680610bf05760405162461bcd60e51b81526004016105b090612148565b60405163079cc67960e41b8152336004820152602481018390526001600160a01b038416906379cc679090604401600060405180830381600087803b158015610c3857600080fd5b505af1158015610c4c573d6000803e3d6000fd5b505050506001600160a01b03811660011415610ce457814711610cb15760405162461bcd60e51b815260206004820152601e60248201527f4272696467653a20696e73756666696369656e74206c6971756964697479000060448201526064016105b0565b604051339083156108fc029084906000818181858888f19350505050158015610cde573d6000803e3d6000fd5b50610dbe565b6040516370a0823160e01b815230600482015282906001600160a01b038316906370a082319060240160206040518083038186803b158015610d2557600080fd5b505afa158015610d39573d6000803e3d6000fd5b505050506040513d601f19601f82011682018060405250810190610d5d9190611fbd565b11610daa5760405162461bcd60e51b815260206004820152601e60248201527f4272696467653a20696e73756666696369656e74206c6971756964697479000060448201526064016105b0565b610dbe6001600160a01b03821633846115c3565b604080516001600160a01b03831681526020810184905233918101919091527f70516e69d9b3069ff3184583d867f7a832772e850ba89b554ae06ff752474f9e90606001610876565b60005460ff1615610e2a5760405162461bcd60e51b81526004016105b0906121ce565b6000805460ff19166001179055610e4360035460ff1690565b15610e605760405162461bcd60e51b81526004016105b090612177565b60808201516001600160a01b0390811660009081526005602052604090205416610e9c5760405162461bcd60e51b81526004016105b090612148565b6000610ea661088d565b8351602080860151604080880151606089015160808a015160a08b01519351979850600097610f1c978a97909695910196875260208701959095526040860193909352606091821b6001600160601b03199081168387015290821b8116607486015291901b166088830152609c82015260bc0190565b60408051601f198184030181528282528051602091820120600854631cea46b760e31b855292519094506001600160a01b03909216926312fb68e09285928892869263e75235b892600480840193919291829003018186803b158015610f8157600080fd5b505afa158015610f95573d6000803e3d6000fd5b505050506040513d601f19601f82011682018060405250810190610fb99190611fbd565b6040518463ffffffff1660e01b8152600401610fd7939291906120ff565b60006040518083038186803b158015610fef57600080fd5b505afa158015611003573d6000803e3d6000fd5b50505060008281526007602052604090205460ff161590506110675760405162461bcd60e51b815260206004820152601760248201527f4272696467653a20616c726561647920636c61696d656400000000000000000060448201526064016105b0565b6000818152600760205260408120805460ff1916600190811790915560808601516001600160a01b031614156110ea578460a0015147106110e55750606084015160a08501516040516001926001600160a01b03169180156108fc02916000818181858888f193505050501580156110e3573d6000803e3d6000fd5b505b61119f565b60a085015160808601516040516370a0823160e01b81523060048201526001600160a01b03909116906370a082319060240160206040518083038186803b15801561113457600080fd5b505afa158015611148573d6000803e3d6000fd5b505050506040513d601f19601f8201168201806040525081019061116c9190611fbd565b1061119f576001905061119f85606001518660a0015187608001516001600160a01b03166115c39092919063ffffffff16565b8015611208577f10e3f79969a3edfa093c6c6ab4caf959847a0660e6fc6ba2038345070dfde52782866080015187606001518860a0015189600001518a602001518b6040015160006040516111fb989796959493929190612092565b60405180910390a16112ed565b60808501516001600160a01b039081166000908152600560205260409081902054606088015160a089015192516340c10f1960e01b815290841660048201526024810192909252909116906340c10f1990604401600060405180830381600087803b15801561127657600080fd5b505af115801561128a573d6000803e3d6000fd5b505050507f10e3f79969a3edfa093c6c6ab4caf959847a0660e6fc6ba2038345070dfde52782866080015187606001518860a0015189600001518a602001518b6040015160016040516112e4989796959493929190612092565b60405180910390a15b50506000805460ff19169055505050565b600054610100900460ff16156113625760405162461bcd60e51b815260206004820152602360248201527f4e656564496e697469616c697a653a20616c726561647920696e697469616c696044820152621e995960ea1b60648201526084016105b0565b600880546001600160a01b039092166001600160a01b031992831617905560098054909116331790556000805461ff001916610100179055565b6000818152600260205260408120610548906115f3565b600082815260016020819052604090912001546113cf8161140e565b610627838361143d565b60006001600160e01b03198216637965db0b60e01b148061054857506301ffc9a760e01b6001600160e01b0319831614610548565b61141881336115fd565b50565b6114258282611661565b600082815260026020526040902061062790826116cc565b61144782826116e1565b60008281526002602052604090206106279082611748565b6040516001600160a01b03808516602483015283166044820152606481018290526114ca9085906323b872dd60e01b906084015b60408051601f198184030181529190526020810180516001600160e01b03166001600160e01b03199093169290921790915261175d565b50505050565b6040516001600160601b031933606090811b8216602084015287811b82166034840152604883018790526068830186905284901b166088820152609c81018290524660bc82015260009060dc0160408051601f1981840301815291815281516020928301206000818152600690935291205490915060ff16156115955760405162461bcd60e51b815260206004820152601860248201527f4272696467653a206465706f736974496420657869737473000000000000000060448201526064016105b0565b6000818152600660205260409020805460ff1916600117905595945050505050565b6000610b0b838361182f565b6040516001600160a01b03831660248201526044810182905261062790849063a9059cbb60e01b90606401611493565b6000610548825490565b6116078282610b14565b6106a65761161f816001600160a01b03166014611867565b61162a836020611867565b60405160200161163b92919061201d565b60408051601f198184030181529082905262461bcd60e51b82526105b091600401612135565b61166b8282610b14565b6106a65760008281526001602081815260408084206001600160a01b0386168086529252808420805460ff19169093179092559051339285917f2f8788117e7eff1d82e926ec794901d17c78024a50270940304540a733656f0d9190a45050565b6000610b0b836001600160a01b038416611a49565b6116eb8282610b14565b156106a65760008281526001602090815260408083206001600160a01b0385168085529252808320805460ff1916905551339285917ff6391f5c32d9c69d2a47ea670b442974b53935d1edc7fd64eb21e047a839171b9190a45050565b6000610b0b836001600160a01b038416611a98565b60006117b2826040518060400160405280602081526020017f5361666545524332303a206c6f772d6c6576656c2063616c6c206661696c6564815250856001600160a01b0316611bb59092919063ffffffff16565b80519091501561062757808060200190518101906117d09190611e73565b6106275760405162461bcd60e51b815260206004820152602a60248201527f5361666545524332303a204552433230206f7065726174696f6e20646964206e6044820152691bdd081cdd58d8d9595960b21b60648201526084016105b0565b600082600001828154811061185457634e487b7160e01b600052603260045260246000fd5b9060005260206000200154905092915050565b60606000611876836002612243565b61188190600261222b565b67ffffffffffffffff8111156118a757634e487b7160e01b600052604160045260246000fd5b6040519080825280601f01601f1916602001820160405280156118d1576020820181803683370190505b509050600360fc1b816000815181106118fa57634e487b7160e01b600052603260045260246000fd5b60200101906001600160f81b031916908160001a905350600f60fb1b8160018151811061193757634e487b7160e01b600052603260045260246000fd5b60200101906001600160f81b031916908160001a905350600061195b846002612243565b61196690600161222b565b90505b60018111156119fa576f181899199a1a9b1b9c1cb0b131b232b360811b85600f16601081106119a857634e487b7160e01b600052603260045260246000fd5b1a60f81b8282815181106119cc57634e487b7160e01b600052603260045260246000fd5b60200101906001600160f81b031916908160001a90535060049490941c936119f3816122a5565b9050611969565b508315610b0b5760405162461bcd60e51b815260206004820181905260248201527f537472696e67733a20686578206c656e67746820696e73756666696369656e7460448201526064016105b0565b6000818152600183016020526040812054611a9057508154600181810184556000848152602080822090930184905584548482528286019093526040902091909155610b0e565b506000610b0e565b60008181526001830160205260408120548015611bab576000611abc600183612262565b8554909150600090611ad090600190612262565b9050818114611b51576000866000018281548110611afe57634e487b7160e01b600052603260045260246000fd5b9060005260206000200154905080876000018481548110611b2f57634e487b7160e01b600052603260045260246000fd5b6000918252602080832090910192909255918252600188019052604090208390555b8554869080611b7057634e487b7160e01b600052603160045260246000fd5b600190038181906000526020600020016000905590558560010160008681526020019081526020016000206000905560019350505050610b0e565b6000915050610b0e565b6060611bc48484600085611bce565b90505b9392505050565b606082471015611c2f5760405162461bcd60e51b815260206004820152602660248201527f416464726573733a20696e73756666696369656e742062616c616e636520666f6044820152651c8818d85b1b60d21b60648201526084016105b0565b843b611c7d5760405162461bcd60e51b815260206004820152601d60248201527f416464726573733a2063616c6c20746f206e6f6e2d636f6e747261637400000060448201526064016105b0565b600080866001600160a01b03168587604051611c999190612001565b60006040518083038185875af1925050503d8060008114611cd6576040519150601f19603f3d011682016040523d82523d6000602084013e611cdb565b606091505b5091509150611ceb828286611cf6565b979650505050505050565b60608315611d05575081611bc7565b825115611d155782518084602001fd5b8160405162461bcd60e51b81526004016105b09190612135565b80356001600160a01b038116811461054b57600080fd5b600082601f830112611d56578081fd5b813567ffffffffffffffff811115611d7057611d706122d2565b611d83601f8201601f19166020016121fa565b818152846020838601011115611d97578283fd5b816020850160208301379081016020019190915292915050565b600060208284031215611dc2578081fd5b610b0b82611d2f565b60008060408385031215611ddd578081fd5b611de683611d2f565b9150611df460208401611d2f565b90509250929050565b60008060408385031215611e0f578182fd5b611e1883611d2f565b946020939093013593505050565b600080600080600060a08688031215611e3d578081fd5b611e4686611d2f565b94506020860135935060408601359250611e6260608701611d2f565b949793965091946080013592915050565b600060208284031215611e84578081fd5b81518015158114610b0b578182fd5b600060208284031215611ea4578081fd5b5035919050565b60008060408385031215611ebd578182fd5b82359150611df460208401611d2f565b60008060408385031215611edf578182fd5b50508035926020909101359150565b600060208284031215611eff578081fd5b81356001600160e01b031981168114610b0b578182fd5b60008082840360e0811215611f29578283fd5b60c0811215611f36578283fd5b50611f4160c06121fa565b8335815260208401356020820152611f5b60408501611d2f565b6040820152611f6c60608501611d2f565b6060820152611f7d60808501611d2f565b608082015260a08481013590820152915060c083013567ffffffffffffffff811115611fa7578182fd5b611fb385828601611d46565b9150509250929050565b600060208284031215611fce578081fd5b5051919050565b60008151808452611fed816020860160208601612279565b601f01601f19169290920160200192915050565b60008251612013818460208701612279565b9190910192915050565b60007f416363657373436f6e74726f6c3a206163636f756e742000000000000000000082528351612055816017850160208801612279565b7001034b99036b4b9b9b4b733903937b6329607d1b6017918401918201528351612086816028840160208801612279565b01602801949350505050565b8881526001600160a01b0388811660208301528781166040830152606082018790526080820186905260a08201859052831660c08201526101008101600283106120ec57634e487b7160e01b600052602160045260246000fd5b8260e08301529998505050505050505050565b60008482526080602083015280608083015260a0604083015261212560a0830185611fd5565b9050826060830152949350505050565b600060208252610b0b6020830184611fd5565b602080825260159082015274213934b233b29d1034b73b30b634b2103a37b5b2b760591b604082015260600190565b60208082526010908201526f14185d5cd8589b194e881c185d5cd95960821b604082015260600190565b602080825260139082015272109c9a5919d94e881e995c9bc8185b5bdd5b9d606a1b604082015260600190565b602080825260129082015271149151539514905390d657d253131151d05360721b604082015260600190565b604051601f8201601f1916810167ffffffffffffffff81118282101715612223576122236122d2565b604052919050565b6000821982111561223e5761223e6122bc565b500190565b600081600019048311821515161561225d5761225d6122bc565b500290565b600082821015612274576122746122bc565b500390565b60005b8381101561229457818101518382015260200161227c565b838111156114ca5750506000910152565b6000816122b4576122b46122bc565b506000190190565b634e487b7160e01b600052601160045260246000fd5b634e487b7160e01b600052604160045260246000fdfea26469706673582212207513c8408e6463bfa4f27694c2b3465a815001d913e992c8b52d568153fa86d764736f6c63430008020033",
  "linkReferences": {},
  "deployedLinkReferences": {}
}