{
  "_format": "hh-sol-artifact-1",
  "contractName": "PeggedToken",
  "sourceName": "contracts/PeggedToken.sol",
  "abi": [
    {
      "anonymous": false,
      "inputs": [
        {
          "indexed": true,
          "internalType": "address",
          "name": "owner",
          "type": "address"
        },
        {
          "indexed": true,
          "internalType": "address",
          "name": "spender",
          "type": "address"
        },
        {
          "indexed": false,
          "internalType": "uint256",
          "name": "value",
          "type": "uint256"
        }
      ],
      "name": "Approval",
      "type": "event"
    },
    {
      "anonymous": false,
      "inputs": [
        {
          "indexed": true,
          "internalType": "address",
          "name": "previousOwner",
          "type": "address"
        },
        {
          "indexed": true,
          "internalType": "address",
          "name": "newOwner",
          "type": "address"
        }
      ],
      "name": "OwnershipTransferred",
      "type": "event"
    },
    {
      "anonymous": false,
      "inputs": [
        {
          "indexed": true,
          "internalType": "address",
          "name": "from",
          "type": "address"
        },
        {
          "indexed": true,
          "internalType": "address",
          "name": "to",
          "type": "address"
        },
        {
          "indexed": false,
          "internalType": "uint256",
          "name": "value",
          "type": "uint256"
        }
      ],
      "name": "Transfer",
      "type": "event"
    },
    {
      "inputs": [
        {
          "internalType": "address",
          "name": "owner",
          "type": "address"
        },
        {
          "internalType": "address",
          "name": "spender",
          "type": "address"
        }
      ],
      "name": "allowance",
      "outputs": [
        {
          "internalType": "uint256",
          "name": "",
          "type": "uint256"
        }
      ],
      "stateMutability": "view",
      "type": "function"
    },
    {
      "inputs": [
        {
          "internalType": "address",
          "name": "spender",
          "type": "address"
        },
        {
          "internalType": "uint256",
          "name": "amount",
          "type": "uint256"
        }
      ],
      "name": "approve",
      "outputs": [
        {
          "internalType": "bool",
          "name": "",
          "type": "bool"
        }
      ],
      "stateMutability": "nonpayable",
      "type": "function"
    },
    {
      "inputs": [
        {
          "internalType": "address",
          "name": "account",
          "type": "address"
        }
      ],
      "name": "balanceOf",
      "outputs": [
        {
          "internalType": "uint256",
          "name": "",
          "type": "uint256"
        }
      ],
      "stateMutability": "view",
      "type": "function"
    },
    {
      "inputs": [
        {
          "internalType": "address",
          "name": "account",
          "type": "address"
        },
        {
          "internalType": "uint256",
          "name": "amount",
          "type": "uint256"
        }
      ],
      "name": "burnFrom",
      "outputs": [],
      "stateMutability": "nonpayable",
      "type": "function"
    },
    {
      "inputs": [],
      "name": "decimals",
      "outputs": [
        {
          "internalType": "uint8",
          "name": "",
          "type": "uint8"
        }
      ],
      "stateMutability": "view",
      "type": "function"
    },
    {
      "inputs": [
        {
          "internalType": "address",
          "name": "spender",
          "type": "address"
        },
        {
          "internalType": "uint256",
          "name": "subtractedValue",
          "type": "uint256"
        }
      ],
      "name": "decreaseAllowance",
      "outputs": [
        {
          "internalType": "bool",
          "name": "",
          "type": "bool"
        }
      ],
      "stateMutability": "nonpayable",
      "type": "function"
    },
    {
      "inputs": [
        {
          "internalType": "address",
          "name": "spender",
          "type": "address"
        },
        {
          "internalType": "uint256",
          "name": "addedValue",
          "type": "uint256"
        }
      ],
      "name": "increaseAllowance",
      "outputs": [
        {
          "internalType": "bool",
          "name": "",
          "type": "bool"
        }
      ],
      "stateMutability": "nonpayable",
      "type": "function"
    },
    {
      "inputs": [
        {
          "internalType": "string",
          "name": "_name",
          "type": "string"
        },
        {
          "internalType": "string",
          "name": "_symbol",
          "type": "string"
        },
        {
          "internalType": "uint8",
          "name": "_decimals",
          "type": "uint8"
        }
      ],
      "name": "initialize",
      "outputs": [],
      "stateMutability": "nonpayable",
      "type": "function"
    },
    {
      "inputs": [],
      "name": "initialized",
      "outputs": [
        {
          "internalType": "bool",
          "name": "",
          "type": "bool"
        }
      ],
      "stateMutability": "view",
      "type": "function"
    },
    {
      "inputs": [
        {
          "internalType": "address",
          "name": "to",
          "type": "address"
        },
        {
          "internalType": "uint256",
          "name": "amount",
          "type": "uint256"
        }
      ],
      "name": "mint",
      "outputs": [],
      "stateMutability": "nonpayable",
      "type": "function"
    },
    {
      "inputs": [],
      "name": "name",
      "outputs": [
        {
          "internalType": "string",
          "name": "",
          "type": "string"
        }
      ],
      "stateMutability": "view",
      "type": "function"
    },
    {
      "inputs": [],
      "name": "owner",
      "outputs": [
        {
          "internalType": "address",
          "name": "",
          "type": "address"
        }
      ],
      "stateMutability": "view",
      "type": "function"
    },
    {
      "inputs": [],
      "name": "renounceOwnership",
      "outputs": [],
      "stateMutability": "nonpayable",
      "type": "function"
    },
    {
      "inputs": [],
      "name": "symbol",
      "outputs": [
        {
          "internalType": "string",
          "name": "",
          "type": "string"
        }
      ],
      "stateMutability": "view",
      "type": "function"
    },
    {
      "inputs": [],
      "name": "totalSupply",
      "outputs": [
        {
          "internalType": "uint256",
          "name": "",
          "type": "uint256"
        }
      ],
      "stateMutability": "view",
      "type": "function"
    },
    {
      "inputs": [
        {
          "internalType": "address",
          "name": "to",
          "type": "address"
        },
        {
          "internalType": "uint256",
          "name": "amount",
          "type": "uint256"
        }
      ],
      "name": "transfer",
      "outputs": [
        {
          "internalType": "bool",
          "name": "",
          "type": "bool"
        }
      ],
      "stateMutability": "nonpayable",
      "type": "function"
    },
    {
      "inputs": [
        {
          "internalType": "address",
          "name": "from",
          "type": "address"
        },
        {
          "internalType": "address",
          "name": "to",
          "type": "address"
        },
        {
          "internalType": "uint256",
          "name": "amount",
          "type": "uint256"
        }
      ],
      "name": "transferFrom",
      "outputs": [
        {
          "internalType": "bool",
          "name": "",
          "type": "bool"
        }
      ],
      "stateMutability": "nonpayable",
      "type": "function"
    },
    {
      "inputs": [
        {
          "internalType": "address",
          "name": "newOwner",
          "type": "address"
        }
      ],
      "name": "transferOwnership",
      "outputs": [],
      "stateMutability": "nonpayable",
      "type": "function"
    }
  ],
  "bytecode": "0x608060405234801561001057600080fd5b5061001a3361001f565b610079565b600580546001600160a01b03838116610100818102610100600160a81b031985161790945560405193909204169182907f8be0079c531659141344cd1fd0a4f28419497f9722a3daafe3b4186f6b6457e090600090a35050565b610fe3806100886000396000f3fe608060405234801561001057600080fd5b50600436106101165760003560e01c806370a08231116100a257806395d89b411161007157806395d89b4114610242578063a457c2d71461024a578063a9059cbb1461025d578063dd62ed3e14610270578063f2fde38b1461028357610116565b806370a08231146101e5578063715018a6146101f857806379cc6790146102005780638da5cb5b1461021357610116565b806318160ddd116100e957806318160ddd1461018557806323b872dd14610197578063313ce567146101aa57806339509351146101bf57806340c10f19146101d257610116565b806306fdde031461011b578063095ea7b314610139578063158ef93e1461015c5780631624f6c614610170575b600080fd5b610123610296565b6040516101309190610e8f565b60405180910390f35b61014c610147366004610dec565b610328565b6040519015158152602001610130565b60055461014c90600160a81b900460ff1681565b61018361017e366004610e15565b610340565b005b6002545b604051908152602001610130565b61014c6101a5366004610db1565b6103ed565b60055460405160ff9091168152602001610130565b61014c6101cd366004610dec565b610411565b6101836101e0366004610dec565b610433565b6101896101f3366004610d5e565b610471565b610183610490565b61018361020e366004610dec565b6104cc565b61022a60055461010090046001600160a01b031690565b6040516001600160a01b039091168152602001610130565b610123610506565b61014c610258366004610dec565b610515565b61014c61026b366004610dec565b610590565b61018961027e366004610d7f565b61059e565b610183610291366004610d5e565b6105c9565b6060600380546102a590610f46565b80601f01602080910402602001604051908101604052809291908181526020018280546102d190610f46565b801561031e5780601f106102f35761010080835404028352916020019161031e565b820191906000526020600020905b81548152906001019060200180831161030157829003601f168201915b5050505050905090565b60003361033681858561066a565b5060019392505050565b600554600160a81b900460ff16156103ab5760405162461bcd60e51b815260206004820152602360248201527f4e656564496e697469616c697a653a20616c726561647920696e697469616c696044820152621e995960ea1b60648201526084015b60405180910390fd5b6103b48361078f565b6103bd826107a2565b6005805460ff191660ff83161790556103d5336107b5565b50506005805460ff60a81b1916600160a81b17905550565b6000336103fb85828561080f565b610406858585610889565b506001949350505050565b600033610336818585610424838361059e565b61042e9190610f17565b61066a565b6005546001600160a01b036101009091041633146104635760405162461bcd60e51b81526004016103a290610ee2565b61046d8282610a57565b5050565b6001600160a01b0381166000908152602081905260409020545b919050565b6005546001600160a01b036101009091041633146104c05760405162461bcd60e51b81526004016103a290610ee2565b6104ca60006107b5565b565b6005546001600160a01b036101009091041633146104fc5760405162461bcd60e51b81526004016103a290610ee2565b61046d8282610ae1565b6060600480546102a590610f46565b60003381610523828661059e565b9050838110156105835760405162461bcd60e51b815260206004820152602560248201527f45524332303a2064656372656173656420616c6c6f77616e63652062656c6f77604482015264207a65726f60d81b60648201526084016103a2565b610406828686840361066a565b600033610336818585610889565b6001600160a01b03918216600090815260016020908152604080832093909416825291909152205490565b6005546001600160a01b036101009091041633146105f95760405162461bcd60e51b81526004016103a290610ee2565b6001600160a01b03811661065e5760405162461bcd60e51b815260206004820152602660248201527f4f776e61626c653a206e6577206f776e657220697320746865207a65726f206160448201526564647265737360d01b60648201526084016103a2565b610667816107b5565b50565b6001600160a01b0383166106cc5760405162461bcd60e51b8152602060048201526024808201527f45524332303a20617070726f76652066726f6d20746865207a65726f206164646044820152637265737360e01b60648201526084016103a2565b6001600160a01b03821661072d5760405162461bcd60e51b815260206004820152602260248201527f45524332303a20617070726f766520746f20746865207a65726f206164647265604482015261737360f01b60648201526084016103a2565b6001600160a01b0383811660008181526001602090815260408083209487168084529482529182902085905590518481527f8c5be1e5ebec7d5bd14f71427d1e84f3dd0314c0f7b2291e5b200ac8c7c3b92591015b60405180910390a3505050565b805161046d906003906020840190610c27565b805161046d906004906020840190610c27565b600580546001600160a01b03838116610100818102610100600160a81b031985161790945560405193909204169182907f8be0079c531659141344cd1fd0a4f28419497f9722a3daafe3b4186f6b6457e090600090a35050565b600061081b848461059e565b9050600019811461088357818110156108765760405162461bcd60e51b815260206004820152601d60248201527f45524332303a20696e73756666696369656e7420616c6c6f77616e636500000060448201526064016103a2565b610883848484840361066a565b50505050565b6001600160a01b0383166108ed5760405162461bcd60e51b815260206004820152602560248201527f45524332303a207472616e736665722066726f6d20746865207a65726f206164604482015264647265737360d81b60648201526084016103a2565b6001600160a01b03821661094f5760405162461bcd60e51b815260206004820152602360248201527f45524332303a207472616e7366657220746f20746865207a65726f206164647260448201526265737360e81b60648201526084016103a2565b6001600160a01b038316600090815260208190526040902054818110156109c75760405162461bcd60e51b815260206004820152602660248201527f45524332303a207472616e7366657220616d6f756e7420657863656564732062604482015265616c616e636560d01b60648201526084016103a2565b6001600160a01b038085166000908152602081905260408082208585039055918516815290812080548492906109fe908490610f17565b92505081905550826001600160a01b0316846001600160a01b03167fddf252ad1be2c89b69c2b068fc378daa952ba7f163c4a11628f55a4df523b3ef84604051610a4a91815260200190565b60405180910390a3610883565b8060026000828254610a699190610f17565b90915550506001600160a01b03821660009081526020819052604081208054839290610a96908490610f17565b90915550506040518181526001600160a01b038316906000907fddf252ad1be2c89b69c2b068fc378daa952ba7f163c4a11628f55a4df523b3ef9060200160405180910390a361046d565b6001600160a01b038216610b415760405162461bcd60e51b815260206004820152602160248201527f45524332303a206275726e2066726f6d20746865207a65726f206164647265736044820152607360f81b60648201526084016103a2565b6001600160a01b03821660009081526020819052604090205481811015610bb55760405162461bcd60e51b815260206004820152602260248201527f45524332303a206275726e20616d6f756e7420657863656564732062616c616e604482015261636560f01b60648201526084016103a2565b6001600160a01b0383166000908152602081905260408120838303905560028054849290610be4908490610f2f565b90915550506040518281526000906001600160a01b038516907fddf252ad1be2c89b69c2b068fc378daa952ba7f163c4a11628f55a4df523b3ef90602001610782565b828054610c3390610f46565b90600052602060002090601f016020900481019282610c555760008555610c9b565b82601f10610c6e57805160ff1916838001178555610c9b565b82800160010185558215610c9b579182015b82811115610c9b578251825591602001919060010190610c80565b50610ca7929150610cab565b5090565b5b80821115610ca75760008155600101610cac565b80356001600160a01b038116811461048b57600080fd5b600082601f830112610ce7578081fd5b813567ffffffffffffffff80821115610d0257610d02610f97565b604051601f8301601f19908116603f01168101908282118183101715610d2a57610d2a610f97565b81604052838152866020858801011115610d42578485fd5b8360208701602083013792830160200193909352509392505050565b600060208284031215610d6f578081fd5b610d7882610cc0565b9392505050565b60008060408385031215610d91578081fd5b610d9a83610cc0565b9150610da860208401610cc0565b90509250929050565b600080600060608486031215610dc5578081fd5b610dce84610cc0565b9250610ddc60208501610cc0565b9150604084013590509250925092565b60008060408385031215610dfe578182fd5b610e0783610cc0565b946020939093013593505050565b600080600060608486031215610e29578283fd5b833567ffffffffffffffff80821115610e40578485fd5b610e4c87838801610cd7565b94506020860135915080821115610e61578384fd5b50610e6e86828701610cd7565b925050604084013560ff81168114610e84578182fd5b809150509250925092565b6000602080835283518082850152825b81811015610ebb57858101830151858201604001528201610e9f565b81811115610ecc5783604083870101525b50601f01601f1916929092016040019392505050565b6020808252818101527f4f776e61626c653a2063616c6c6572206973206e6f7420746865206f776e6572604082015260600190565b60008219821115610f2a57610f2a610f81565b500190565b600082821015610f4157610f41610f81565b500390565b600281046001821680610f5a57607f821691505b60208210811415610f7b57634e487b7160e01b600052602260045260246000fd5b50919050565b634e487b7160e01b600052601160045260246000fd5b634e487b7160e01b600052604160045260246000fdfea2646970667358221220c75b421ac0216daa4e25b273317e841494d68e2376e90010366afd289f4f44f264736f6c63430008020033",
  "linkReferences": {},
  "deployedLinkReferences": {}
}